:020000040000FA
:060000000A128A110C280F
:10000800FE00030EF2000A08F3000A128A15342FC4
:100018000A128A110F288313CA30FD000730FE0028
:10002800FC30FF00C63084000A128A1512260A1214
:100038008A115030FD000D30FE00F530FF004430CD
:1000480084000A128A1512260A128A1183160313CB
:10005800C001C101C201C301C401C5018312031358
:10006800D001D101D201D301F601F701F801F9015C
:1000780083010A128A11262E831203139F111F125D
:100088009F121F150F3083120313AE00AE0B4A28C0
:100098004D28831203131E08AE00AF01B001B10151
:1000A8003108A3003008A2002F08A1002E08A000E4
:1000B80000300A128A114A240A128A118312031381
:1000C8002308F9002208F8002108F7002008F600A4
:1000D8009F151F129F121F150F3083120313AE00B6
:1000E800AE0B74287728831203131E08AE00AF01E5
:1000F800B001B1013108A3003008A2002F08A10007
:100108002E08A00000300A128A114A240A128A1105
:10011800831203132308D3002208D2002108D10038
:100128002008D0009F111F169F121F150F30831231
:100138000313AE00AE0B9E28A128831203131E08DA
:10014800AE00AF01B001B1013108A3003008A20030
:100158002F08A1002E08A00000300A128A114A2494
:100168000A128A1183120313230883160313C30088
:1001780083120313220883160313C2008312031386
:10018800210883160313C100831203132008831662
:100198000313C000831203139F151F169F121F1508
:1001A8000F3083120313AE00AE0BD828DB2883125E
:1001B80003131E08AE00AF01B001B1013108A3005E
:1001C8003008A2002F08A1002E08A00000300A1253
:1001D8008A114A240A128A11831203132308CF00B2
:1001E8002208CE002108CD002008CC009F111F1244
:1001F8009F161F150F3083120313AE00AE0B022992
:100208000529831203131E08AE00AF01B001B10126
:100218003108A3003008A2002F08A1002E08A00072
:1002280000300A128A114A240A128A11831203130F
:100238002308CB002208CA002108C9002008C800EA
:100248009F151F129F161F150F3083120313AE0040
:10025800AE0B2C292F29831203131E08AE00AF0101
:10026800B001B1013108A3003008A2002F08A10095
:100278002E08A00000300A128A114A240A128A1194
:10028800831203132308C7002208C6002108C500EB
:100298002008C4009F111F169F161F1502308312D5
:1002A8000313AE00AE0B56290000831203131E0879
:1002B800AE00AF01B001B1013108A3003008A200BF
:1002C8002F08A1002E08A00000300A128A114A2423
:1002D8000A128A1183120313230883160313C90011
:1002E80083120313220883160313C800831203130F
:1002F800210883160313C7008312031320088316EB
:100308000313C60008000A128A1501260A128A1168
:1003180083120313A201A20A01300A128A11F026DD
:100328000A128A110B3083120313BF003F08AC0076
:100338005308A3005208A2005108A1005008A000C9
:100348000A128A11AA250A128A1183120313210894
:10035800AE002008AD007908A3007808A20077084D
:10036800A1007608A0000A128A11AA250A128A1189
:10037800831203132108B0002008AF00831603136B
:10038800430883120313A30083160313420883123E
:100398000313A20083160313410883120313A10059
:1003A80083160313400883120313A0000A128A114C
:1003B800AA250A128A11831203132108B200200801
:1003C800B1004F08A3004E08A2004D08A1004C0838
:1003D800A0000A128A11AA250A128A11831203138D
:1003E8002108B4002008B300A0300A128A117E2226
:1003F8000A128A11A0300A128A150F270A128A11C6
:100408000D3083120313C000FB30BF00BF0B0A2A54
:10041800C00B0A2A83120313A201A20A02300A128D
:100428008A11F0260A128A11203083120313BF00A2
:100438003F08AC004B08A3004A08A2004908A100E5
:100448004808A0000A128A11AA250A128A118312E2
:1004580003132108AE002008AD004708A300460892
:10046800A2004508A1004408A0000A128A11AA2582
:100478000A128A11831203132108B0002008AF0062
:1004880083160313490883120313A3008316031367
:10049800480883120313A200831603134708831224
:1004A8000313A10083160313460883120313A00045
:1004B8000A128A11AA250A128A1183120313210823
:1004C800B2002008B100B0300A128A117E220A1246
:1004D8008A11B0300A128A150F270A128A110D30B4
:1004E80083120313C000FB30BF00BF0B792AC00B77
:1004F800792A080083120313BD002D30B500350892
:10050800B800512B25303E0603198B2A8C2A982ACD
:100518003E08B5003D08840035088313800001308B
:10052800B5003508BD07512BB9010130AC07FF30C4
:100538002C0784000A128A1500200A128A11BE00AC
:10054800B500B6013608003A0319AB2A512B350815
:10055800003A0319632B643A0319B62A0D3A0319B2
:10056800B62A512B3808840083130008BB00840A7C
:100578000008BC000230B5003508B807BC1FC52A02
:10058800C62ACF2A0330B5003508B904BB09BC090F
:10059800BB0A0319BC0ABE01BE0A3E08B5003507EE
:1005A800013E84000A128A1500200A128A11B60038
:1005B8000A128A1500200A128A11B70037083C026D
:1005C800031DE82A36083B020318EB2AEC2AED2A19
:1005D800F72A0130B5003508BE0705303E06031D71
:1005E800F62AF72AD12A390803390319FC2AFD2AE1
:1005F800082B2D30B5003D08840035088313800092
:100608000130B5003508BD073E08B5003508BA0009
:10061800482B0A30A7000030A8003A08B500350773
:10062800013E84000A128A1500200A128A11A000CD
:100638000A128A1500200A128A11A1003C08A30098
:100648003B08A2000A128A119A270A128A118312F9
:1006580003132108AA002008A9000A128A15C42732
:100668000A128A11831203132708303EB60036088F
:10067800BE003E08B5003D0884003508831380009D
:100688000130B5003508BD07FF30B5003508BA0799
:100698003A0A031D502B512B0D2B0130AC07FF30AC
:1006A8002C0784000A128A1500200A128A11B50044
:1006B8003508BE003E08031D622B632B862A3D08C1
:1006C8008400831380010800423083120313A300BF
:1006D8008030A2000030A1000030A0005308A7001D
:1006E8005208A6005108A5005008A4000A128A1151
:1006F80006250A128A11031C822B832B922B0A12BD
:100708008A15EC260A128A1183120313071383121F
:1007180003138712831203130712492C43308312E1
:100728000313A3000030A2000030A1000030A00095
:100738005308A7005208A6005108A5005008A400B5
:100748000A128A1106250A128A11031CAC2BAD2B3A
:10075800B82B0A128A15EC260A128A110A128A156F
:10076800A6260A128A118B2B423083120313A30088
:100778008030A2000030A1000030A0005308A7007C
:100788005208A6005108A5005008A4000A128A11B0
:1007980006250A128A110318D22BD32BFE2B4330BD
:1007A80083120313A3004030A2000030A1000030E0
:1007B800A0005308A7005208A6005108A500500839
:1007C800A4000A128A1106250A128A11031CED2BAD
:1007D800EE2BFE2B0A128A15EC260A128A110A122F
:1007E8008A15A6260A128A110A128A15C9260A1219
:1007F8008A118E2B423083120313A3008030A2008B
:100808000030A1000030A0005308A7005208A6003D
:100818005108A5005008A4000A128A1106250A12D8
:100828008A110318182C192C492C433083120313EE
:10083800A3008030A2000030A1000030A0005308BF
:10084800A7005208A6005108A5005008A4000A12E3
:100858008A1106250A128A11031C332C342C492CC0
:100868000A128A15EC260A128A110A128A15A62675
:100878000A128A110A128A15C9260A128A110A123C
:100888008A155C270A128A11492C0800831203135F
:10089800A80028080319512C522C662CA31F552C8C
:1008A800562C662C2009AA002109AB002209AC00AD
:1008B8002309AD00AA0A0319AB0A0319AC0A0319E4
:1008C800AD0A6E2C2308AD002208AC002108AB004D
:1008D8002008AA002308220421042004031D752CE3
:1008E800762C7F2C0030A3000030A2000030A1003D
:1008F8000030A000052D9630A4002408A900912CF2
:100908000130A4002408A90701300310AD0CAC0C79
:10091800AB0CAA0CFF3E031D892CFE302D05031DD0
:10092800962C972C842CB32C0130A4002408A907FA
:100938000130AA07003003180130AB070030031854
:100948000130AC07003003180130AD070130031047
:10095800AD0CAC0CAB0CAA0CFF3E031DAB2CFF304E
:100968002D05031DB82CB92C982CC52C0130A902D3
:100978000130A4000310AA0DAB0DAC0DAD0DA40BF6
:10098800BE2CAC1BC82CC92CCF2C02302902031852
:10099800CE2CCF2CBA2C2918D22CD32CDB2CFF3000
:1009A800AA05FF30AB057F30AC05FF30AD0503105D
:1009B800A90C2908A400A501A601A7011830031055
:1009C800A40DA50DA60DA70DFF3E031DE32C2408BD
:1009D800AA042508AB042608AC042708AD04280897
:1009E8000319F72CF82CFD2CA31FFB2CFC2CFD2C39
:1009F800AD172D08A3002C08A2002B08A1002A0877
:100A0800A00008000030831203132005A80000305E
:100A18002105A90080302205AA007F302305AB00FC
:100A28002B082A0429042804031D1B2D1C2D242D02
:100A38000030A3000030A2000030A1000030A00068
:100A480000302405A80000302505A90080302605BF
:100A5800AA007F302705AB002B082A0429042804A4
:100A6800031D372D382D402D0030A7000030A6007B
:100A78000030A5000030A400A31F432D442D682D8D
:100A88000030A8000030A9000030AA008030AB0078
:100A98002008A8022108031C210F532D542DA90258
:100AA8002208031C220F592D5A2DAA022308031CC1
:100AB800230F5F2D602DAB022B08A3002A08A2008C
:100AC8002908A1002808A000A71F6B2D6C2D902DC8
:100AD8000030A8000030A9000030AA008030AB0028
:100AE8002408A8022508031C250F7B2D7C2DA902AC
:100AF8002608031C260F812D822DAA022708031C15
:100B0800270F872D882DAB022B08A7002A08A600DF
:100B18002908A5002808A4008030A3068030A7066D
:100B280027082302031DA22D26082202031DA22D39
:100B380025082102031DA22D240820020318A52D33
:100B4800A62DA82D0310A92D031408000310831245
:100B58000313220D230DA4002408F5007508031DB6
:100B6800B62DB72DC02D0030A3000030A2000030F4
:100B7800A1000030A000252E2008A4002108A5000F
:100B88002208A6002308A7001F300310A70CA60CF4
:100B9800A50CA40CFF3E031DC92D2408A800280895
:100BA800F400A217FF30A005FF30A105FF30A20511
:100BB8000030A3059630F502F51FE32DE42DFE2D38
:100BC8007508803A973E0318EA2DEB2DEC2DB72DCA
:100BD80001300310A30CA20CA10CA00CFF3E031DB6
:100BE800ED2D0130A4002408F507031DFC2DFD2D73
:100BF800EC2D152E20307502031C032E042E102E0A
:100C0800B72D0130A4000310A00DA10DA20DA30D56
:100C1800A40B072E0130F5027508031D142E152E9E
:100C2800052E74080319192E1A2E252EA009A109BC
:100C3800A209A309A00A0319A10A0319A20A031900
:100C4800A30A08000A128A1148270A128A110A12EE
:100C58008A118D260A128A110A128A1140200A1254
:100C68008A110A128A1187210A128A118312031320
:100C780088168815881407147908A3007808A20034
:100C88007708A1007608A0000A128A11AA250A127C
:100C98008A11831203132108803AFF0080307F02F3
:100CA800031D582EC0302002031C5B2E5C2E622EC2
:100CB8000A128A1563260A128A11672E0A128A15E1
:100CC80042260A128A118312031386196C2E6D2E7E
:100CD800712E051E702E712E762E0A128A15EA259F
:100CE8000A128A110A128A1168230A128A11063016
:100CF80083120313C3001330C200AD30C100C10B0F
:100D0800832EC20B832EC30B832E302E0A128A1118
:100D18000C2800300A128A1584260A128A111A3001
:100D280083120313A300F730A200A20B992EA30B82
:100D3800992E9E2E03300A128A11E0270A128A1170
:100D4800073083120313A3007C30A200A20BAA2E43
:100D5800A30BAA2E000003300A128A11E0270A12F8
:100D68008A110F3083120313A3004730A200A20B8D
:100D7800BB2EA30BBB2E03300A128A11E0270A12DE
:100D88008A1102300A128A11E0270A128A110230E7
:100D98000A128A11E0270A128A1108300A128A11E7
:100DA800E0270A128A1100300A128A11E0270A1273
:100DB8008A110C300A128A11E0270A128A110030AF
:100DC8000A128A11E0270A128A1106300A128A11B9
:100DD800E0270A128A11080083120313A5002503CD
:100DE800031DF72EF82E1D2F22087F3EA30023088F
:100DF800A8002808A30004300310A30CFF3E031D1D
:100E0800002F2308A4002408A60028080F39A300EF
:100E18002308A70026080A128A11E0270A128A1155
:100E28008312031327080A128A11E0270A128A116B
:100E3800472F02302506031D222F232F472F220874
:100E4800BF3EA3002308A8002808A300043003100D
:100E5800A30CFF3E031D2B2F2308A4002408A60083
:100E680028080F39A3002308A70026080A128A11A8
:100E7800E0270A128A118312031327080A128A111B
:100E8800E0270A128A110800831603138117061433
:100E98008610061186150612861206138613011788
:100EA8008B170B168B100B17011481140115811564
:100EB80083120313901010169012DC308E000B3042
:100EC8008F00831603130C14831203131014FF30BE
:100ED800831603138500870188011F109F101F11B7
:100EE8009F11831203131F139F13831603139F135A
:100EF8009E01831203139E011F140610861006110B
:100F0800861106128612061386130710871007111A
:100F18008711071287120713871308108810081102
:100F28008811081288120813881308008312031303
:100F3800A501A601200821040319A32FA42FDB2F44
:100F4800A401A40AB22F01300310A00DA10DFF3E89
:100F5800031DA82F0130F4007408A407A11FB52FA2
:100F6800B62FA72F01300310A50DA60DFF3E031DB8
:100F7800B72F21082302031DC32F20082202031CB8
:100F8800C62FC72FCE2F2008A2022108031CA303B7
:100F9800A302251401300310A10CA00CFF3E031D71
:100FA800CF2F0130A402031DDA2FDB2FB62F26081E
:100FB800A1002508A0000800F500831203130611FC
:100FC80075080A128A1584260A128A1183120313D5
:100FD8008614063083120313A1002F30A000A00B43
:100FE800F32FA10BF32FF82F831203138610080099
:100FF800003480348034433408308A000408840A7A
:1010080082070034013400340A3400346434003474
:10101800E83403341034273451343A3425346934ED
:10102800203443343A342534693420344C343A3447
:10103800253469342034533431343A34253469340E
:101048000034533432343A34253469342034533438
:1010580033343A34253469342034533434343A340C
:08106800253469342034003402
:101BD40083120313081687140815081708148715A9
:101BE40007158817080000348034803443340034E7
:101BF40080348034433400348034803443340030BF
:101C04000A128A11E0270A128A1501300A128A116F
:101C1400E0270A128A1508007E088A007F088200DD
:101C24000A128A150E260A128A158000840A0408EC
:101C34007D0603190034FF0A0319FE0A122E8312CB
:101C44000313051A262E272E392E0812871408117D
:101C5400081708108715071188171430F100793018
:101C6400F000F00B332EF10B332E382E412E0816D4
:101C7400871408150817081487150715881708000E
:101C8400831203138619472E482E5A2E08168710DE
:101C94000815081308148711071588131430F50064
:101CA4007930F400F40B542EF50B542E592E622E79
:101CB40008168714081508170814871507158817B8
:101CC400080083120313051A682E692E7B2E08124E
:101CD400871408110817081087150711881714307E
:101CE400F5007930F400F40B752EF50B752E7A2E71
:101CF400832E081687140815081708148715071566
:101D040088170800F400741C882E892E8D2E8312E7
:101D140003130616902E831203130612F41C932E3B
:101D2400942E962E8616972E8612741D9A2E9B2E0E
:101D34009D2E06179E2E0613F41DA12EA22EA42E50
:101D44008617A52E86130800433083120313A300BD
:101D54000030A2000030A1000030A0004B08A70012
:101D64004A08A6004908A5004808A4000A128A11D6
:101D740006250A128A15031CC02EC12EC52E8312F5
:101D840003130717C82E83120313071308008312C3
:101D940003134708A3004608A2004508A10044080D
:101DA400A0004330A7000030A6000030A50000309A
:101DB400A4000A128A1106250A128A150318E32EB2
:101DC400E42EE82E831203138716EB2E83120313DB
:101DD40087120800433083120313A3000030A200CB
:101DE4000030A1000030A0004F08A7004E08A60054
:101DF4004D08A5004C08A4000A128A1106250A12EF
:101E04008A15031C062F072F0B2F83120313871722
:101E14000E2F831203138713080083120313A600E3
:101E2400A401A501282F24082607A3002308840061
:101E340000080A128A158D270A128A1501308312A6
:101E44000313A4070318A50A0030A50724082607CE
:101E5400A3002308840083130008031D322F332FAB
:101E6400152F08008B1C372F382F472F3F2F640066
:101E74000A128A1521260A128A15831203130618D8
:101E8400442F452F392F8B10552F831203130C1C0D
:101E94004C2F4D2F552F6400831203130C10DC308C
:101EA4008E000B308F0073088A00720E8300FE0EC2
:101EB4007E0E090083160313490883120313A3003B
:101EC40083160313480883120313A2008316031313
:101ED400470883120313A1008316031346088312D1
:101EE4000313A0004330A7000030A6000030A50073
:101EF4000030A4000A128A1106250A128A15031852
:101F0400842F852F892F8312031307168C2F831296
:101F140003130712080083120313A20022080F39C7
:101F2400F5007508A0002208F039F5007508A10035
:101F340006152108F50004300310F50CFF3E031DBF
:101F44009E2F75080A128A1584260A128A1583128E
:101F5400031386140D30F500F50BAE2F8312031313
:101F6400861020080A128A1584260A128A158312FA
:101F7400031386140D30F500F50BBE2F83120313E3
:101F84008610080083120313270828040319CB2F93
:101F9400CC2FFB2FAB01AB0ADA2F01300310A70DB6
:101FA400A80DFF3E031DD02F0130F5007508AB07C7
:101FB400A81FDD2FDE2FCF2F28082A02031DE42FB0
:101FC40027082902031CE72FE82FEE2F2708A90270
:101FD4002808031CAA03AA0201300310A80CA70CAA
:101FE400FF3E031DEF2F0130AB02031DFA2FFB2F21
:0C1FF400DE2F2A08A8002908A70008001A
:02400E00F63F7B
:00000001FF
