:020000040000FA
:060000000A128A11122809
:10000800FE00030E83120313D5000408D6000A0865
:10001800D7007F08D8000A128A15232E0A128A11DF
:10002800152883136930FD000D30FE004E30FF00A7
:10003800593084000A128A11EF270A128A1183168E
:100048000313B501B601B701B801B901BA01BB0183
:10005800BC0183120313E901EA01EB01EC018301FE
:100068000A128A116E2E831203139F111F129F12F8
:100078001F153E283F280000831203131E0883160D
:100088000313AE00AF01B001B1013108A30030087D
:10009800A2002F08A1002E08A00000300A128A1121
:1000A80094240A128A11831603132308BC00220819
:1000B800BB002108BA002008B900831203139F155A
:1000C8001F129F121F156828692800008312031346
:1000D8001E0883160313AE00AF01B001B101310849
:1000E800A3003008A2002F08A1002E08A0000030AD
:1000F8000A128A1194240A128A11831603132308F8
:1001080083120313EC0083160313220883120313CC
:10011800EB0083160313210883120313EA008316E6
:100128000313200883120313E9009F111F169F125F
:100138001F159E289F280000831203131E0883168C
:100148000313AE00AF01B001B1013108A3003008BC
:10015800A2002F08A1002E08A00000300A128A1160
:1001680094240A128A11831603132308B80022085C
:10017800B7002108B6002008B500831203139F15A5
:100188001F169F121F15C828C928000083120313C1
:100198001E0883160313AE00AF01B001B101310888
:1001A800A3003008A2002F08A1002E08A0000030EC
:1001B8000A128A1194240A128A1183160313230837
:1001C80083120313E8008316031322088312031310
:1001D800E70083160313210883120313E60083162E
:1001E8000313200883120313E5009F111F129F16A3
:1001F8001F15FE28FF280000831203131E0883160C
:100208000313AE00AF01B001B1013108A3003008FB
:10021800A2002F08A1002E08A00000300A128A119F
:1002280094240A128A1183160313230883120313D2
:10023800E40083160313220883120313E3008316D2
:100248000313210883120313E20083160313200803
:1002580083120313E1009F151F129F161F153429DF
:1002680035290000831203131E0883160313AE00FA
:10027800AF01B001B1013108A3003008A2002F0876
:10028800A1002E08A00000300A128A1194240A1234
:100298008A1183160313230883120313E0008316BD
:1002A8000313220883120313DF00831603132108A4
:1002B80083120313DE00831603132008831203132B
:1002C800DD009F111F169F161F156A296B29000054
:1002D800831203131E0883160313AE00AF01B00187
:1002E800B1013108A3003008A2002F08A1002E0890
:1002F800A00000300A128A1194240A128A11831667
:100308000313230883120313DC0083160313220844
:1003180083120313DB0083160313210883120313CC
:10032800DA0083160313200883120313D900080088
:10033800423083160313A3008030A2000030A100CE
:100348000030A000831203136C0883160313A70060
:10035800831203136B0883160313A6008312031377
:100368006A0883160313A50083120313690883160A
:100378000313A4000A128A1150250A128A11031CB9
:10038800C629C729CD290A128A15E2260A128A1116
:10039800D42A433083160313A3000030A200003090
:1003A800A1000030A000831203136C088316031306
:1003B800A700831203136B0883160313A600831286
:1003C80003136A0883160313A5008312031369082D
:1003D80083160313A4000A128A1150250A128A11DF
:1003E800031CF729F829032A0A128A15E2260A1299
:1003F8008A110A128A15AF260A128A11D42A4230A3
:1004080083160313A3008030A2000030A10000303F
:10041800A000831203136C0883160313A70083122A
:1004280003136B0883160313A600831203136A08C9
:1004380083160313A5008312031369088316031395
:10044800A4000A128A1150250A128A1103182D2AAB
:100458002E2A692A433083160313A3004030A200D2
:100468000030A1000030A000831203136C0883162B
:100478000313A700831203136B0883160313A60044
:10048800831203136A0883160313A5008312031348
:10049800690883160313A4000A128A1150250A1248
:1004A8008A11031C582A592A692A0A128A15E2262F
:1004B8000A128A110A128A15AF260A128A110A121A
:1004C8008A157E260A128A11D42A4230831603130B
:1004D800A3008030A2000030A1000030A0008312E9
:1004E80003136C0883160313A700831203136B0806
:1004F80083160313A600831203136A0883160313D3
:10050800A50083120313690883160313A4000A12B3
:100518008A1150250A128A110318932A942AD42A78
:10052800433083160313A3008030A2000030A100DB
:100538000030A000831203136C0883160313A7006E
:10054800831203136B0883160313A6008312031385
:100558006A0883160313A500831203136908831618
:100568000313A4000A128A1150250A128A11031CC7
:10057800BE2ABF2AD42A0A128A15E2260A128A112A
:100588000A128A15AF260A128A110A128A157E26BD
:100598000A128A110A128A154D260A128A11D42AB9
:1005A800080083120313B1002130A9002908AC0008
:1005B800A62B253032060319E22AE32AEF2A32084D
:1005C800A900310884002908831380000130A9009C
:1005D8002908B107A62BAD010130A007FF3020077D
:1005E80084000A128A1500200A128A11B200A90092
:1005F800AA012A08003A0319022BA62B2908003A57
:100608000319B82B643A03190D2B0D3A03190D2B56
:10061800A62B2C08840083130008AF00840A000866
:10062800B0000230A9002908AC07B01F1C2B1D2BF5
:10063800262B0330A9002908AD04AF09B009AF0A79
:100648000319B00AB201B20A3208A9002907013E0B
:1006580084000A128A1500200A128A11AA000A12B6
:100668008A1500200A128A11AB002B083002031DDC
:100678003F2B2A082F020318422B432B442B4E2BC7
:100688000130A9002908B20705303206031D4D2B99
:100698004E2B282B2D0803390319532B542B5F2B72
:1006A8002D30A90031088400290883138000013007
:1006B800A9002908B1073208A9002908AE009D2B16
:1006C8000A30F8000030F9002E08A9002907013E79
:1006D80084000A128A1500200A128A11F0000A12F0
:1006E8008A1500200A128A11F1003008F3002F0839
:1006F800F2000A128A15BC270A128A117108FB0037
:100708007008FA000A128A1582270A128A117808D4
:10071800303E83120313AA002A08B2003208A90047
:10072800310884002908831380000130A9002908B2
:10073800B107FF30A9002908AE072E0A031DA52B13
:10074800A62B642B0130A007FF30200784000A1273
:100758008A1500200A128A11A9002908B200320855
:10076800031DB72BB82BDD2A3108840083138001C1
:1007780008000A128A1541250A128A11F401F40A9E
:1007880001300A128A1199270A128A110B30831232
:100798000313B3003308A0006C08F3006B08F200E1
:1007A8006A08F1006908F0000A128A11F4250A1291
:1007B8008A11710883120313A2007008A10083161E
:1007C80003133C08F3003B08F2003A08F10039082B
:1007D800F0000A128A11F4250A128A11710883128C
:1007E8000313A4007008A300831603133808F3004A
:1007F8003708F2003608F1003508F0000A128A11AD
:10080800F4250A128A11710883120313A6007008CE
:10081800A5006808F3006708F2006608F10065089B
:10082800F0000A128A11F4250A128A11710883123B
:100838000313A8007008A70035300A128A11D522C0
:100848000A128A1135300A128A15E0250A128A110D
:100858000D3083120313B400FB30B300B30B322CFA
:10086800B40B322CF401F40A02300A128A119927C7
:100878000A128A11203083120313B3003308A00030
:100888006408F3006308F2006208F1006108F000F0
:100898000A128A11F4250A128A11710883120313A5
:1008A800A2007008A1006008F3005F08F2005E086B
:1008B800F1005D08F0000A128A11F4250A128A1163
:1008C800710883120313A4007008A3005C08F300E6
:1008D8005B08F2005A08F1005908F0000A128A1160
:1008E800F4250A128A11710883120313A6007008EE
:1008F800A50045300A128A11D5220A128A114530FC
:100908000A128A15E0250A128A110D308312031380
:10091800B400FB30B300B30B8F2CB40B8F2C080042
:1009280083160313A800280803199B2C9C2CB02CB1
:10093800A31F9F2CA02CB02C2009AA002109AB00D2
:100948002209AC002309AD00AA0A0319AB0A03194E
:10095800AC0A0319AD0AB82C2308AD002208AC0074
:100968002108AB002008AA0023082204210420043F
:10097800031DBF2CC02CC92C0030A3000030A200DE
:100988000030A1000030A0004F2D9630A4002408AC
:10099800A900DB2C0130A4002408A90701300310AA
:1009A800AD0CAC0CAB0CAA0CFF3E031DD32CFE30D7
:1009B8002D05031DE02CE12CCE2CFD2C0130A400CC
:1009C8002408A9070130AA07003003180130AB0733
:1009D800003003180130AC07003003180130AD07B0
:1009E80001300310AD0CAC0CAB0CAA0CFF3E031D80
:1009F800F52CFF302D05031D022D032DE22C0F2DA4
:100A08000130A9020130A4000310AA0DAB0DAC0DF2
:100A1800AD0DA40B082DAC1B122D132D192D023072
:100A280029020318182D192D042D29181C2D1D2DE8
:100A3800252DFF30AA05FF30AB057F30AC05FF3010
:100A4800AD050310A90C2908A400A501A601A7015A
:100A580018300310A40DA50DA60DA70DFF3E031D0C
:100A68002D2D2408AA042508AB042608AC04270861
:100A7800AD0428080319412D422D472DA31F452DEC
:100A8800462D472DAD172D08A3002C08A2002B08D2
:100A9800A1002A08A00008000030831603132005CF
:100AA800A80000302105A90080302205AA007F3067
:100AB8002305AB002B082A0429042804031D652DEF
:100AC800662D6E2D0030A3000030A2000030A1007A
:100AD8000030A00000302405A80000302505A9003A
:100AE80080302605AA007F302705AB002B082A0492
:100AF80029042804031D812D822D8A2D0030A7008A
:100B08000030A6000030A5000030A400A31F8D2DE2
:100B18008E2DB22D0030A8000030A9000030AA00A8
:100B28008030AB002008A8022108031C210F9D2D4E
:100B38009E2DA9022208031C220FA32DA42DAA0270
:100B48002308031C230FA92DAA2DAB022B08A300F1
:100B58002A08A2002908A1002808A000A71FB52D6F
:100B6800B62DDA2D0030A8000030A9000030AA0008
:100B78008030AB002408A8022508031C250FC52DCA
:100B8800C62DA9022608031C260FCB2DCC2DAA02A0
:100B98002708031C270FD12DD22DAB022B08A70045
:100BA8002A08A6002908A5002808A4008030A30662
:100BB8008030A70627082302031DEC2D26082202F1
:100BC800031DEC2D25082102031DEC2D240820020D
:100BD8000318EF2DF02DF22D0310F32D0314080048
:100BE8000310720D730DF4007408FA007A08031DDF
:100BF800FE2DFF2D082E0030F3000030F2000030EB
:100C0800F1000030F0006D2E7008F4007108F50056
:100C18007208F6007308F7001F300310F70CF60C83
:100C2800F50CF40CFF3E031D112E7408F80078082B
:100C3800F900F217FF30F005FF30F105FF30F2053B
:100C48000030F3059630FA02FA1F2B2E2C2E462E72
:100C58007A08803A973E0318322E332E342EFF2D11
:100C680001300310F30CF20CF10CF00CFF3E031DE5
:100C7800352E0130F4007408FA07031D442E452E62
:100C8800342E5D2E20307A02031C4B2E4C2E582E0B
:100C9800FF2D0130F4000310F00DF10DF20DF30DEE
:100CA800F40B4F2E0130FA027A08031D5C2E5D2EDC
:100CB8004D2E79080319612E622E6D2EF009F10967
:100CC800F209F309F00A0319F10A0319F20A0319E0
:100CD800F30A08000A128A1143270A128A110A1213
:100CE8008A11E0260A128A110A128A1137200A127A
:100CF8008A11433083160313A3004030A20000304A
:100D0800A1000030A0003C08A7003B08A6003A0854
:100D1800A5003908A4000A128A1150250A128A115E
:100D28000318972E982EA32E83120313051A9D2EAF
:100D38009E2EA32E0A128A158E250A128A11423077
:100D480083160313A300FA30A2000030A10000307C
:100D5800A0003808A7003708A6003608A5003508FF
:100D6800A4000A128A1150250A128A110318BD2EEE
:100D7800BE2EC92E831203138619C32EC42EC92E64
:100D88000A128A1576250A128A110A128A119C21DA
:100D98000A128A11033083160313B4008A30B30091
:100DA8005530B200B20BD62EB30BD62EB40BD62EBE
:100DB800782E0A128A11122800300A128A1515276D
:100DC8000A128A111A3083160313A500F730A400FB
:100DD800A40BEC2EA50BEC2EF12E03300A128A156B
:100DE800C0250A128A11073083160313A5007C3028
:100DF800A400A40BFD2EA50BFD2E000003300A1243
:100E08008A15C0250A128A110F3083160313A5000C
:100E18004730A400A40B0E2FA50B0E2F03300A1287
:100E28008A15C0250A128A1102300A128A15C025AD
:100E38000A128A1102300A128A15C0250A128A116A
:100E480008300A128A15C0250A128A1100300A12BF
:100E58008A15C0250A128A110C300A128A15C02573
:100E68000A128A1100300A128A15C0250A128A113C
:100E780006300A128A15C0250A128A11080083163C
:100E8800031381170614861006118615061286129A
:100E98000613861301178B170B168B100B170114EB
:100EA80081140115811583120313901010169012E6
:100EB800DC308E000B308F00831603130C14831262
:100EC80003131014FF30831603138500870188016C
:100ED8001F109F101F119F11831203131F139F13BD
:100EE800831603139F139E01831203139E011F147D
:100EF800061086100611861106128612061386132E
:100F08000710871407158715071287120713871309
:100F180008148810081588110816881208178817E9
:100F280088168815881407140800F7007703031D2E
:100F38009E2F9F2FC22F74087F3EF5007508FA0078
:100F48007A08F50004300310F50CFF3E031DA72FA7
:100F58007508F6007608F8007A080F39F500750864
:100F6800F90078080A128A15A6250A128A11790842
:100F78000A128A15A6250A128A11EA2F0230770664
:100F8800031DC72FC82FEA2F7408BF3EF500750848
:100F9800FA007A08F50004300310F50CFF3E031D33
:100FA800D02F7508F6007608F8007A080F39F50092
:100FB8007508F90078080A128A15A6250A128A11F6
:100FC80079080A128A15A6250A128A1108007E08CD
:100FD8008A007F0882000A128A11EB270A128A11F6
:100FE8008000840A04087D0603190034FF0A0319E7
:040FF800FE0AEF2FCF
:1010000008308A000408840A82070034013400345E
:101010000A34003464340034E834033410342734A0
:1010200051343A3425346934203443343A34253445
:10103000693420344C343A34253469342034533400
:1010400031343A34253469340034533432343A3448
:10105000253469342034533433343A3425346934F4
:101060002034533434343A34253469342034003451
:101A820000300A128A15A6250A128A1501300A1296
:101A92008A15A6250A128A1508000034803480347B
:101AA200433400348034803443340034803480340E
:101AB2004334003480348034433483120313051AD0
:101AC200632D642D6D2D0812871408110817081054
:101AD200871507118817752D08168714081508171A
:101AE200081487150715881708008312031386192F
:101AF2007B2D7C2D852D08168710081508130814D8
:101B02008711071588138D2D0816871408150817D5
:101B12000814871507158817080083120313051A7E
:101B2200932D942D9D2D0812871408110817081063
:101B3200871507118817A52D081687140815081789
:101B420008148715071588170800F300831203137A
:101B5200061173080A128A1501260A128A158312BF
:101B6200031386140630F2003030F100F10BB72D6A
:101B7200F20BB72D000083120313861008008316A0
:101B82000313A300831203130611831603132308FE
:101B92000A128A1515270A128A158312031386144C
:101BA200063083160313A2002F30A100A10BD72DFC
:101BB200A20BD72DDC2D8312031386100800F80028
:101BC200F601F701F52D76087807F500750884000F
:101BD20000080A128A154B270A128A150130F607E5
:101BE2000318F70A0030F70776087807F50075083A
:101BF200840083130008031DFF2D002EE42D08002E
:101C0200F000701C052E062E0A2E831203130616F0
:101C12000D2E831203130612F01C102E112E132EFA
:101C22008616142E8612701D172E182E1A2E0617BF
:101C32001B2E0613F01D1E2E1F2E212E8617222E5E
:101C4200861308008B1C262E272E2E2E64000A12C5
:101C52008A155E250A128A153F2E0C1C312E322E51
:101C62003F2E64000A128A11BD230A128A158312BA
:101C720003130C10DC308E000B308F008B1083129C
:101C820003135808FF0057088A0056088400550EAF
:101C92008300FE0E7E0E0900831203135C08831676
:101CA2000313A300831203135B0883160313A2001A
:101CB200831203135A0883160313A100831203131A
:101CC200590883160313A0004330A7000030A60072
:101CD2000030A5000030A4000A128A1150250A1211
:101CE2008A150318752E762E7A2E83120313071681
:101CF2007D2E831203130712080083120313600858
:101D020083160313A300831203135F0883160313BE
:101D1200A200831203135E0883160313A100831229
:101D220003135D0883160313A0004330A70000309D
:101D3200A6000030A5000030A4000A128A11502526
:101D42000A128A150318A62EA72EAB2E831203138E
:101D52008716AE2E831203138712080043308316B0
:101D62000313A3000030A2000030A1000030A00045
:101D720083120313640883160313A7008312031349
:101D8200630883160313A6008312031362088316E3
:101D92000313A50083120313610883160313A4001F
:101DA2000A128A1150250A128A15031CD92EDA2E1C
:101DB200DE2E831203130717E12E83120313071378
:101DC2000800433083160313A3000030A200003042
:101DD200A1000030A00083120313680883160313C6
:101DE200A70083120313670883160313A600831246
:101DF2000313660883160313A500831203136508F1
:101E020083160313A4000A128A1150250A128A1596
:101E1200031C0C2F0D2F112F831203138717142F5E
:101E2200831203138713080083160313A000201CD8
:101E32001B2F1C2F202F831203130616232F83120E
:101E42000313061283160313A01C282F292F2D2FEC
:101E5200831203138616302F8312031386128316FE
:101E62000313201D352F362F3A2F83120313061723
:101E72003D2F83120313061383160313A01D422F53
:101E8200432F472F8312031386174A2F83120313FC
:101E920086130800F40074080F39F1007108F2008B
:101EA2007408F039F1007108F30083120313061568
:101EB2007308F10004300310F10CFF3E031D5C2F88
:101EC20071080A128A1501260A128A15831203134F
:101ED20086140D30F100F10B6C2F83120313861060
:101EE20072080A128A1501260A128A15831203132E
:101EF20086140D30F100F10B7C2F83120313861030
:101F02000800780879040319872F882FB72FFD015D
:101F1200FD0A962F01300310F80DF90DFF3E031D47
:101F22008C2F0130FC007C08FD07F91F992F9A2F96
:101F32008B2F79087B02031DA02F78087A02031CDD
:101F4200A32FA42FAA2F7808FA027908031CFB03F7
:101F5200FB0201300310F90CF80CFF3E031DAB2FFE
:101F62000130FD02031DB62FB72F9A2F7B08F9000F
:101F72007A08F8000800F501F601700871040319E7
:101F8200C32FC42FFB2FF701F70AD22F0130031002
:101F9200F00DF10DFF3E031DC82F0130F40074084F
:101FA200F707F11FD52FD62FC72F01300310F50DDC
:101FB200F60DFF3E031DD72F71087302031DE32F99
:101FC20070087202031CE62FE72FEE2F7008F20250
:101FD2007108031CF303F302751401300310F10CB2
:101FE200F00CFF3E031DEF2F0130F702031DFA2F05
:0E1FF200FB2FD62F7608F1007508F0000800CE
:02400E00F63F7B
:00000001FF
