:020000040000FA
:100000000A128A11E22FF7007703031D0828092836
:100010002C2874087F3EF5007508FA007A08F50070
:1000200004300310F50CFF3E031D11287508F6007F
:100030007608F8007A080F39F5007508F900780895
:100040000A168A151F210A128A1179080A168A15BA
:100050001F210A128A11542802307706031D312805
:10006000322854287408BF3EF5007508FA007A0853
:10007000F50004300310F50CFF3E031D3A28750807
:10008000F6007608F8007A080F39F5007508F900CF
:1000900078080A168A151F210A128A1179080A1689
:1000A0008A151F210A128A110800831203139F1157
:1000B0001F129F121F15053083120313A000A00BFF
:1000C0005F286228831203131E08A000A101A20169
:1000D000A3012308F3002208F2002108F100200800
:1000E000F00000300A168A15CB250A128A1173080F
:1000F00083160313E1007208E0007108DF00700846
:10010000DE00831203139F151F129F121F15053067
:1001100083120313A000A00B8B288E2883120313D5
:100120001E08A000A101A201A3012308F3002208D8
:10013000F2002108F1002008F00000300A168A15AC
:10014000CB250A128A11730883160313DD00720887
:10015000DC007108DB007008DA00831203139F11C2
:100160001F169F121F15053083120313A000A00B4A
:10017000B728BA28831203131E08A000A101A20108
:10018000A3012308F3002208F2002108F10020084F
:10019000F00000300A168A15CB250A128A1173085E
:1001A00083160313D9007208D8007108D7007008AD
:1001B000D600831203139F151F169F121F150530BB
:1001C00083120313A000A00BE328E6288312031375
:1001D0001E08A000A101A201A3012308F300220828
:1001E000F2002108F1002008F00000300A168A15FC
:1001F000CB250A128A11730883160313D5007208DF
:10020000D4007108D3007008D200831203139F1129
:100210001F129F161F15053083120313A000A00B99
:100220000F291229831203131E08A000A101A201A5
:10023000A3012308F3002208F2002108F10020089E
:10024000F00000300A168A15CB250A128A117308AD
:1002500083160313D1007208D0007108CF00700814
:10026000CE00831203139F151F129F161F15053012
:1002700083120313A000A00B3B293E298312031312
:100280001E08A000A101A201A3012308F300220877
:10029000F2002108F1002008F00000300A168A154B
:1002A000CB250A128A11730883160313CD00720836
:1002B000CC007108CB007008CA00831203139F1191
:1002C0001F169F161F15053083120313A000A00BE5
:1002D00067296A29831203131E08A000A101A20145
:1002E000A3012308F3002208F2002108F1002008EE
:1002F000F00000300A168A15CB250A128A117308FD
:1003000083160313C9007208C8007108C70070087B
:10031000C600080083160313BD00A130A500250800
:10032000AE00CB2F25304206031997299829A4291E
:100330004208A5003D08840025088317800001308D
:10034000A5002508BD07CB2FAF01B0012008840010
:100350000A168A110A200A128A112E3A031DB1299F
:10036000B229F72930170130A5002508A007BB01E5
:10037000BC01E6290A30F0000030F10083160313B7
:100380003C08F3003B08F2000A168A157F210A1286
:100390008A11710883160313BC007008BB00200883
:1003A00084000A168A110A200A128A11D03EA5007A
:1003B000FF3003180030A6002508BB070318BC0A4D
:1003C0002608BC070130A5002508A00720088400E6
:1003D0000A168A110A200A128A110A128A150220A4
:1003E0000A128A110318F529F629BA29FD29BB0139
:1003F000BC013016FD293015192A0130831603136C
:10040000A007FF30200784000A168A110A200A126A
:100410008A11C200A500A6012608003A0319112A74
:10042000CB2F2508003A0319DD2F663A0319FB2963
:10043000CB2F00302F05A50007303005A60025087A
:1004400026040319242A252A862F301E282A292A21
:100450002D2A0630BB000030BC002E088400831318
:100460000008BE00840A0008BF00840A0008C0001B
:10047000840A0008C1000430A5002508AE07410821
:10048000F3004008F2003F08F1003E08F0000030A1
:10049000F7000030F6000030F5000030F4000A16D6
:1004A0008A11C1200A128A110318572A582A752A5C
:1004B000831603134108F3004008F2003F08F100DF
:1004C0003E08F0000A168A1507210A128A117308DD
:1004D00083160313C1007208C0007108BF007008C2
:1004E000BE000330AF040030B00483160313B5011F
:1004F000B6014108F3004008F2003F08F1003E0851
:10050000F0000030F7000030F6000030F500003059
:10051000F4000A168A1528230A128A110318912A50
:10052000922A822B031083160313400D410D823E45
:10053000B500FF3003180030B600FF30B5070318D0
:10054000B60AFF30B6070330F0000030F10036087D
:10055000F3003508F2000A168A157F210A128A1163
:10056000710883160313B6007008B5000A30F7004F
:100570000030F8003608FA003508F9000A168A1526
:10058000E6240A128A11780883160313B600770846
:10059000B500B61FCC2ACD2AD32AFF30B5070318E1
:1005A000B60AFF30B6073503FF3A0A128A15402112
:1005B0000A128A1183120313410883160313BA0027
:1005C00083120313400883160313B9008312031325
:1005D0003F0883160313B800831203133E088316E3
:1005E0000313B700410883120313A70083160313F4
:1005F000400883120313A600831603133F088312D7
:100600000313A500831603133E0883120313A400EB
:10061000831603133A0883120313AB0083160313E4
:10062000390883120313AA008316031338088312B0
:100630000313A90083160313370883120313A800BA
:100640000A128A159F240A128A118312031327089B
:1006500083160313BA0083120313260883160313A9
:10066000B90083120313250883160313B8008312FD
:100670000313240883160313B7003A08F30039085C
:10068000F2003808F1003708F0003F30F700803002
:10069000F6000030F5000030F4000A168A11C1207F
:1006A0000A128A110318552B562B5F2BFF30831625
:1006B0000313B5070318B60AFF30B607822B83165B
:1006C00003133A08F3003908F2003808F10037083C
:1006D000F0004130F7002030F6000030F500003027
:1006E000F4000A168A11C1200A128A11031C792B00
:1006F0007A2B822B013083160313B5070318B60A31
:100700000030B607831603133C08803AFF008030A0
:100710007F02031D8D2B0D303B020318902B912B74
:10072000D82B831603133B080A168A116D230A126D
:100730008A11831203134108D5004008D4003F08F2
:10074000D3003E08D200831603134108831203131B
:10075000D90083160313400883120313D8008316AD
:1007600003133F0883120313D700831603133E08B5
:1007700083120313D6000A168A1178250A128A11E9
:1007800083120313550883160313C1008312031346
:10079000540883160313C0008312031353088316EF
:1007A0000313BF0083120313520883160313BE0002
:1007B000831603133608803AFF0080307F02031D42
:1007C000E32B0A3035020318E62BE72B382C83166F
:1007D00003134108F3004008F2003F08F1003E080F
:1007E000F0000030F7000030F6000030F500003077
:1007F000F4000A168A1528230A128A110318012CFC
:10080000022CAA2C83160313410883120313D4006D
:1008100083160313400883120313D30083160313B4
:100820003F0883120313D200831603133E0883127A
:100830000313D1000A168A154F250A128A11831252
:1008400003135408530452045104031D282C292C6B
:10085000AA2C831603133608803AFF0080307F02EB
:10086000031D342C02303502031C372C382CAA2CE3
:10087000831603133A08F3003908F2003808F10030
:100880003708F0004030F7008930F6007030F5008E
:100890005F30F4000A168A11C1200A128A11031867
:1008A000522C532C5C2CF73083160313B507031816
:1008B000B60AFF30B607642CF83083160313B50769
:1008C0000318B60AFF30B60735080A128A15402108
:1008D0000A128A1183120313410883160313BA0004
:1008E00083120313400883160313B9008312031302
:1008F0003F0883160313B800831203133E088316C0
:100900000313B7004108F3004008F2003F08F1006C
:100910003E08F0003A08F7003908F6003808F500FC
:100920003708F4000A168A1542270A128A1173083A
:1009300083160313B4007208B3007108B200700884
:10094000B1000030C1000030C0000030BF000030F6
:10095000BE002E2D83160313410883120313D40007
:1009600083160313400883120313D3008316031363
:100970003F0883120313D200831603133E08831229
:100980000313D1000A168A154F250A128A11831201
:100990000313540883160313B4008312031353087C
:1009A00083160313B3008312031352088316031331
:1009B000B20083120313510883160313B1003408E5
:1009C000F3003308F2003208F1003108F000003083
:1009D0000A168A15CB250A128A117308831203138B
:1009E000E9007208E8007108E7007008E600831665
:1009F0000313410883120313ED0083160313400809
:100A000083120313EC00831603133F0883120313AE
:100A1000EB00831603133E0883120313EA000A1641
:100A20008A155B210A128A1183120313690883163F
:100A30000313C10083120313680883160313C00055
:100A400083120313670883160313BF008312031373
:100A5000660883160313BE00B501B601C201C20ABF
:100A60004208A50001300310A50DFF3E031D332DE4
:100A70000310250D693E84000A168A110A200A1205
:100A80008A11A6000A168A110A200A128A11A700E2
:100A90000A168A110A200A128A11A8000A168A1157
:100AA0000A200A128A11A90029083402031D622DA6
:100AB00028083302031D622D27083202031D622D10
:100AC000260831020318652D662D672D712D013022
:100AD000A5002508C2070A304206031D702D712D9E
:100AE000302D03302F05A50000303005A600250865
:100AF000260403197C2D7D2DEF2D2D30A5003D08FA
:100B000084002508831780000130A5002508BD0753
:100B1000EF2D4208A50001300310A50DFF3E031D77
:100B20008C2D0310250D693E84000A168A110A20B7
:100B30000A128A11F0000A168A110A200A128A1172
:100B4000F1000A168A110A200A128A11F2000A1606
:100B50008A110A200A128A11F3003408F7003308B8
:100B6000F6003208F5003108F4000A168A158024D0
:100B70000A128A11730883160313BA007208B900A7
:100B80007108B8007008B7000030F3000030F200C0
:100B90000030F1000A30F0003A08F7003908F6009A
:100BA0003808F5003708F4000A168A1576230A1269
:100BB0008A11730883160313BA007208B90071080A
:100BC000B8007008B7003708303EA5003D08840023
:100BD0002508831780000130A5002508BD070130D6
:100BE000C202420A031DF52DF62D892D0A2E303042
:100BF00083160313A5003D08840025088317800091
:100C00000130A5002508BD07FF30B5070318B60A57
:100C1000FF30B6073608803AFF0080307F02031DA0
:100C2000132E013035020318162E172EF72D8316BA
:100C300003133C08803AFF0080307F02031D222E00
:100C400009303B02031C252E262E2D2E083083163C
:100C50000313A5002508C200332E831603133B0897
:100C6000A5002508C2004208A500A6012508BB0270
:100C70002608031CBC03BC0242080319402E412E67
:100C80004C2E2E30A5003D088400250883178000D7
:100C90000130A5002508BD0742080A128A15402127
:100CA0000A128A1183120313410883160313AD003D
:100CB00083120313400883160313AC00831203133B
:100CC0003F0883160313AB00831203133E088316F9
:100CD0000313AA002D0883120313AB00831603131A
:100CE0002C0883120313AA00831603132B08831204
:100CF0000313A900831603132A0883120313A80001
:100D000083160313410883120313A70083160313EA
:100D1000400883120313A600831603133F088312AF
:100D20000313A500831603133E0883120313A400C4
:100D30000A128A159F240A128A11831203132708A4
:100D4000D4002608D3002508D2002408D1000A16B2
:100D50008A154F250A128A11831203135408831629
:100D60000313B40083120313530883160313B30051
:100D700083120313520883160313B2008312031362
:100D8000510883160313B100662F4208A5000130F5
:100D90000310A50DFF3E031DC82E0310250D693E4F
:100DA00084000A168A110A200A128A11F0000A1613
:100DB0008A110A200A128A11F1000A168A110A20E1
:100DC0000A128A11F2000A168A110A200A128A11DE
:100DD000F3003408F7003308F6003208F500310854
:100DE000F4000A168A1580240A128A1173088316E1
:100DF0000313BA007208B9007108B8007008B70090
:100E00000030F3000030F2000030F1000A30F00052
:100E10003A08F7003908F6003808F5003708F400FA
:100E20000A168A1576230A128A1173088316031389
:100E3000BA007208B9007108B8007008B700370826
:100E4000303EA5003D08840025088317800001304E
:100E5000A5002508BD074208A50001300310A50D17
:100E6000FF3E031D2E2F0310250D693E84000A1638
:100E70008A110A200A128A11F0000A168A110A2021
:100E80000A128A11F1000A168A110A200A128A111E
:100E9000F2000A168A110A200A128A11F300340895
:100EA000F7003308F6003208F5003108F4000A169E
:100EB0008A1576230A128A11730883160313B40065
:100EC0007208B3007108B2007008B1000130C202AC
:100ED000420A031D6C2F6D2FC52E7F2F3030A500C9
:100EE0003D0884002508831780000130A5002508EF
:100EF000BD07FF30BB070318BC0AFF30BC073B0827
:100F00003C04031D842F852F6E2FCB2F3B083C0400
:100F1000031D8B2F8C2F9A2F340833043204310495
:100F2000031D932F942F9A2F0130BB070318BC0A7F
:100F30000030BC073C08803A803C031DA12F3B08D1
:100F400042020318A42FA52FA62FB52F8316031333
:100F50003C08803AA50080302502031DB12F4208CD
:100F60003B020318B42FB52FB52F0330831603139C
:100F70002F05A50000303005A6002508260403191A
:100F8000C22FC32FCB2F2D30A5003D08840025088C
:100F9000831780009F290130A007FF3020078400BD
:100FA0000A168A110A200A128A11A5002508C20011
:100FB0004208031DDC2FDD2F92293D088400831792
:100FC000800108008313C6308400E2300A168A15B7
:100FD000FF200A128A11831790308400E0300A162D
:100FE0008A15FF200A128A11103084004C300A162C
:100FF0008A15FF200A128A1183010A128A15142801
:10100400F100F0013A307102031809280A28122865
:1010140030307102031C0F2810281228F001F00A46
:10102400700C0800831603138601FF3085008701C6
:1010340088011F109F101F119F11831203131F1388
:101044009F13831603139F139E01831203139E01A0
:101054001F140A168A1523240A128A150A128A11E1
:1010640055200A128A154330F3004030F200003054
:10107400F1000030F000831603136108F7006008E4
:10108400F6005F08F5005E08F4000A168A11C12014
:101094000A128A1503184F28502855280A168A154B
:1010A400CB210A128A15831603135908F300580832
:1010B400F2005708F1005608F0004230F700FE3005
:1010C400F6000030F5000030F4000A168A11C12041
:1010D4000A128A1503186F28702876280A168A15AA
:1010E400FE210A128A157B280A168A15CB210A12B8
:1010F4008A15831603135508F3005408F2005308A5
:10110400F1005208F0004330F7000030F6000030E0
:10111400F5000030F4000A168A11C1200A128A155B
:10112400031895289628AA28831203130717033057
:1011340083160313C5008A30C4005530C300C30BA3
:10114400A128C40BA128C50BA128831203130713DC
:10115400831603135108F3005008F2004F08F100FE
:101164004E08F0004330F7000030F6000030F50080
:101174000030F4000A168A11C1200A128A150318D5
:10118400C428C528D928831203138717033083166C
:101194000313C5008A30C4005530C300C30BD028E4
:1011A400C40BD028C50BD0288312031387138316CE
:1011B40003134D08F3004C08F2004B08F1004A08F1
:1011C400F0004330F7000030F6000030F500003046
:1011D400F4000A168A11C1200A128A150318F3288A
:1011E400F428082983120313071603308316031304
:1011F400C5008A30C4005530C300C30BFF28C40B9C
:10120400FF28C50BFF288312031307128316031349
:101214004908F3004808F2004708F1004608F000C6
:101224004330F7000030F6000030F5000030F400E1
:101234000A168A11C1200A128A15031822292329A1
:101244003729831203138716033083160313C5004B
:101254008A30C4005530C300C30B2E29C40B2E2979
:10126400C50B2E298312031387120A168A116321D0
:101274000A128A1530280A128A11002883120313CD
:10128400D000D01F46294729F42AD009D00A500893
:10129400803A123E031C4F295029382A0A30F7009D
:1012A4000030F8005008F200F301F21BF30364303D
:1012B400F0000030F1000A168A15CA230A128A15B2
:1012C4007108FA007008F9000A168A15E6240A1251
:1012D4008A15770883120313C20001300310C20D6C
:1012E400FF3E031D70290310420D593E84000A1667
:1012F4008A110A200A128A15C3000A168A110A20C2
:101304000A128A15C4000A168A110A200A128A15BA
:10131400C5000A168A110A200A128A15C600460850
:10132400A7004508A6004408A5004308A4006430AB
:10133400F7000030F8005008F900FA01F91BFA032D
:101344000A168A15E6240A128A15770883120313EB
:10135400C70001300310C70DFF3E031DAC29031065
:10136400470D7D3E84000A168A110A200A128A1546
:10137400C8000A168A110A200A128A15C9000A1618
:101384008A110A200A128A15CA000A168A110A202A
:101394000A128A15CB004B08AB004A08AA00490878
:1013A400A9004808A8000A128A159F240A128A155F
:1013B400831203132708CF002608CE002508CD008A
:1013C4002408CC000A30F0000030F1005008F2008C
:1013D400F301F21BF3030A168A15CA230A128A15AB
:1013E400700883120313C20001300310C20DFF3EC4
:1013F400031DF7290310420D353E84000A168A1195
:101404000A200A128A15C3000A168A110A200A122F
:101414008A15C4000A168A110A200A128A15C50000
:101424000A168A110A200A128A15C6004608A7005D
:101434004508A6004408A5004308A4004F08AB00D3
:101444004E08AA004D08A9004C08A8000A128A15E3
:101454009F240A128A15831203132708C100260841
:10146400C0002508BF002408BE009E2C5008803A06
:10147400753E031C3E2A3F2AC72A0A30F00000307A
:10148400F1005008F200F301F21BF3030A168A1567
:10149400CA230A128A15700883120313C20001308A
:1014A4000310C20DFF3E031D522A0310420D353EA8
:1014B40084000A168A110A200A128A15C3000A1621
:1014C4008A110A200A128A15C4000A168A110A20EF
:1014D4000A128A15C5000A168A110A200A128A15E8
:1014E400C6004608A7004508A6004408A50043080E
:1014F400A4000A30F7000030F8005008F900FA019F
:10150400F91BFA030A168A15E6240A128A157708C3
:1015140083120313C70001300310C70DFF3E031DE0
:101524008E2A0310470D593E84000A168A110A2098
:101534000A128A15C8000A168A110A200A128A1584
:10154400C9000A168A110A200A128A15CA000A1644
:101554008A110A200A128A15CB004B08AB004A08EC
:10156400AA004908A9004808A8000A128A159F245D
:101574000A128A15831203132708C1002608C00023
:101584002508BF002408BE009E2C5008C20001306C
:101594000310C20DFF3E031DCA2A0310420D353E3F
:1015A40084000A168A110A200A128A15C3000A1630
:1015B4008A110A200A128A15C4000A168A110A20FE
:1015C4000A128A15C5000A168A110A200A128A15F7
:1015D400C6004608C1004508C0004408BF004308CF
:1015E400BE009E2C5008803A123E031CFA2AFB2AA5
:1015F400E32B0A30F7000030F8005008F200F30142
:10160400F21BF3036430F0000030F1000A168A156F
:10161400CA230A128A157108FA007008F9000A161A
:101624008A15E6240A128A15770883120313C20066
:1016340001300310C20DFF3E031D1B2B0310420D8E
:10164400253E84000A168A110A200A128A15C3004C
:101654000A168A110A200A128A15C4000A168A1167
:101664000A200A128A15C5000A168A110A200A12CB
:101674008A15C6004608A7004508A6004408A50028
:101684004308A4006430F7000030F8005008F90063
:10169400FA01F91BFA030A168A15E6240A128A15B6
:1016A400770883120313C70001300310C70DFF3EF0
:1016B400031D572B0310470D493E84000A168A1157
:1016C4000A200A128A15C8000A168A110A200A1268
:1016D4008A15C9000A168A110A200A128A15CA0034
:1016E4000A168A110A200A128A15CB004B08AB008D
:1016F4004A08AA004908A9004808A8000A128A153D
:101704009F240A128A15831203132708CF00260880
:10171400CE002508CD002408CC000A30F0000030AB
:10172400F1005008F200F301F21BF3030A168A15C4
:10173400CA230A128A15700883120313C2000130E7
:101744000310C20DFF3E031DA22B0310420D013EE8
:1017540084000A168A110A200A128A15C3000A167E
:101764008A110A200A128A15C4000A168A110A204C
:101774000A128A15C5000A168A110A200A128A1545
:10178400C6004608A7004508A6004408A50043086B
:10179400A4004F08AB004E08AA004D08A9004C084D
:1017A400A8000A128A159F240A128A1583120313A9
:1017B4002708C1002608C0002508BF002408BE0071
:1017C4009E2C5008803A753E031CE92BEA2B722CA0
:1017D4000A30F0000030F1005008F200F301F21B6F
:1017E400F3030A168A15CA230A128A15700883128B
:1017F4000313C20001300310C20DFF3E031DFD2B75
:101804000310420D013E84000A168A110A200A12AE
:101814008A15C3000A168A110A200A128A15C400FE
:101824000A168A110A200A128A15C5000A168A1194
:101834000A200A128A15C6004608A7004508A60011
:101844004408A5004308A4000A30F7000030F8005B
:101854005008F900FA01F91BFA030A168A15E6245E
:101864000A128A15770883120313C7000130031084
:10187400C70DFF3E031D392C0310470D253E840080
:101884000A168A110A200A128A15C8000A168A1131
:101894000A200A128A15C9000A168A110A200A1295
:1018A4008A15CA000A168A110A200A128A15CB0060
:1018B4004B08AB004A08AA004908A9004808A80038
:1018C4000A128A159F240A128A1583120313270801
:1018D400C1002608C0002508BF002408BE009E2CB5
:1018E4005008C20001300310C20DFF3E031D752CC9
:1018F4000310420D013E84000A168A110A200A12BE
:101904008A15C3000A168A110A200A128A15C4000D
:101914000A168A110A200A128A15C5000A168A11A3
:101924000A200A128A15C6004608C1004508C000EC
:101934004408BF004308BE000800831203132708AD
:101944008039AC002C08B1002708AC002C07AD008E
:101954002D08B700A61FAF2CB02CB12C37143708B4
:101964000319B52CB62CC52C370A031DBA2CBB2C75
:10197400C32C0030A7000030A6000030A5000030C2
:10198400A400A617CD2C0030A7000030A60000301C
:10199400A5000030A4002B088039AC002C08B10647
:1019A4002B08AC002C07AD002D08B600AA1FDB2CB9
:1019B400DC2CDD2C361436080319E12CE22CF12C36
:1019C400360A031DE62CE72CEF2C0030AB00003068
:1019D400AA000030A9000030A800AA17F92C003092
:1019E400AB000030AA000030A9000030A80036087F
:1019F4000319FD2CFE2C032D3708031D022D032D86
:101A04000C2D0030A7000030A6000030A5000030E7
:101A1400A400FF2F2408AC002C08F0002A080A16A2
:101A24008A15A4210A128A15710883120313BD00B2
:101A34007008BC003C08AC00AD01AE01AF012F083A
:101A4400B5002E08B4002D08B3002C08B2003D08E0
:101A5400AC00AD01AE01AF012F08BB002E08BA00E7
:101A64002D08B9002C08B8002508AC002C08F0009B
:101A740029080A168A15A4210A128A1571088312E4
:101A84000313BD007008BC003C08AC00AD01AE01FE
:101A9400AF012C08B2072D0803110318013E0319E6
:101AA400542DB3072E0803110318013E03195B2DAF
:101AB400B4072F0803110318013E0319622DB5075B
:101AC4003D08AC00AD01AE01AF012C08B8072D08EC
:101AD40003110318013E0319702DB9072E080311D1
:101AE4000318013E0319772DBA072F0803110318B1
:101AF400013E03197E2DBB072608AC002C08F0001C
:101B040028080A168A15A4210A128A157108831254
:101B14000313BD007008BC003C08AC00AD01AE016D
:101B2400AF012C08B2072D0803110318013E031955
:101B34009C2DB3072E0803110318013E0319A32D8E
:101B4400B4072F0803110318013E0319AA2DB50782
:101B54003D08AC00AD01AE01AF012C08B8072D085B
:101B640003110318013E0319B82DB9072E080311F8
:101B74000318013E0319BF2DBA072F0803110318D8
:101B8400013E0319C62DBB070830AC000310B20D8B
:101B9400B30DB40DB50DAC0BC82D2508AC002C0845
:101BA400F00028080A168A15A4210A128A15710859
:101BB40083120313BD007008BC003C08AC003D0850
:101BC400AD00AE01AF012C08B2072D0803110318B4
:101BD400013E0319EE2DB3072E0803110318013E2D
:101BE4000319F52DB4072F0803110318013E031937
:101BF400FC2DB5072408AC002C08F00029080A16AF
:101C04008A15A4210A128A15710883120313BD00D0
:101C14007008BC003C08AC003D08AD00AE01AF014B
:101C24002C08B2072D0803110318013E03191B2EBB
:101C3400B3072E0803110318013E0319222EB4071B
:101C44002F0803110318013E0319292EB507083084
:101C5400AC000310B20DB30DB40DB50DAC0B2B2EAF
:101C64002408AC002C08F00028080A168A15A421C0
:101C74000A128A15710883120313BD007008BC0090
:101C84003C08AC003D08AD00AE01AF012C08B20722
:101C94002D0803110318013E0319512EB3072E0812
:101CA40003110318013E0319582EB4072F0803111A
:101CB4000318013E03195F2EB5072508AC002C0854
:101CC400F0002A080A168A15A4210A128A15710836
:101CD40083120313BD007008BC003C08AC003D082F
:101CE400AD00AE01AF012C08B8072D08031103188D
:101CF400013E03197E2EB9072E0803110318013E75
:101D04000319852EBA072F0803110318013E03197E
:101D14008C2EBB072608AC002C08F00029080A16F4
:101D24008A15A4210A128A15710883120313BD00AF
:101D34007008BC003C08AC003D08AD00AE01AF012A
:101D44002C08B8072D0803110318013E0319AB2E04
:101D5400B9072E0803110318013E0319B22EBA075E
:101D64002F0803110318013E0319B92EBB072608D7
:101D7400AC002C08F0002A080A168A15A4210A12BD
:101D84008A15710883120313BD007008BC003C0857
:101D9400AC003D08AD00AE01AF0108300310AC0D3E
:101DA400AD0DAE0DAF0DFF3E031DD02E2C08B807B0
:101DB4002D0803110318013E0319E12EB9072E085B
:101DC40003110318013E0319E82EBA072F08031163
:101DD4000318013E0319EF2EBB073208AC00330889
:101DE400AD003408AE003508AF0018300310AF0C56
:101DF400AE0CAD0CAC0CFF3E031DF82E2C08B8073E
:101E04002D0803110318013E0319092FB9072E08E1
:101E140003110318013E0319102FBA072F080311E9
:101E24000318013E0319172FBB070830AC00031039
:101E3400B20DB30DB40DB50DAC0B192F3708360721
:101E4400AC00AD01AD0D2C08823EBC002D0803187A
:101E5400013EFF3EBD004B2F0130AC000310B80D16
:101E6400B90DBA0DBB0DAC0B302FB51F3A2F3B2F5C
:101E74003C2F38140130AC000310B20DB30DB40D77
:101E8400B50DAC0B3E2FFF30BC070318BD0AFF3065
:101E9400BD07BA1F4E2F4F2F2E2FB601B51F532F3C
:101EA400542F702FFF303205AC00FF303305AD00E6
:101EB400FF303405AE007F303505AF002F082E0407
:101EC4002D042C040319672F682F6B2FB601B60A53
:101ED400702F381C6E2F6F2F702F682F3608031940
:101EE400742F752FA62F0130B80700300318013066
:101EF400B907003003180130BA0700300318013065
:101F0400BB073B1C862F872FA62F3808AC00390847
:101F1400AD003A08AE003B08AF000130B0002F0D11
:101F2400AF0CAE0CAD0CAC0CB00B912F2F08BB005A
:101F34002E08BA002D08B9002C08B8000130BC07DF
:101F44000318BD0A0030BD073D08803AFF00803009
:101F54007F02031DAF2FFF303C02031CB22FB32FAF
:101F6400BE2F7F3083120313BB008030BA000030D1
:101F7400B9000030B800F32F831203133D08803AF0
:101F8400FF0080307F02031DC92F01303C0203187B
:101F9400CC2FCD2FD92F003083120313BB00003078
:101FA400BA000030B9000030B800B101F32F831239
:101FB40003133C08AC002C08B700FF30B805FF3011
:101FC400B9057F30BA050030BB05371CEA2FEB2F6B
:101FD400EC2FBA173708AC0003102C0CAD002D08F9
:101FE400BB003108AC002C08BB043B08A7003A082E
:101FF400A6003908A5003808A4000800FF1B0A2819
:1020040083137F1883170008840A0319FF0A080042
:1020140010308A000408840A820700340034003433
:1020240080343F34003400342034413400340034EC
:10203400C8344234003400347A34443400344034F4
:102044001C34463400345034C3344734003424340C
:10205400743449348034963418344B342034BC34CA
:10206400BE344C3428346B346E344E34F934023478
:1020740015345034EC347834AD346034CA34F2342A
:10208400493471340034003480343F34CD34CC349A
:10209400CC343D340A34D73423343C346F341234D2
:1020A40083343A341734B734D1343834AC34C53487
:1020B40027343734BD343734863435349534BF341B
:1020C400D63433347734CC342B3432345F347034F4
:1020D40089343034FF34E634DB342E340834E534C8
:1020E4003C341E3460344234A2340D3401340034A0
:1020F400003400340A3400340034003464340034CE
:1021040000340034E8340334003400341034273409
:1021140000340034A0348634013400344034423472
:102124000F34003480349634983400340034E1346D
:10213400F53405340034CA349A343B3425342E340F
:10214400323466340034533431343A340034533442
:1021540032343A340034533433343A34003453345C
:1021640034343A34003441343A34003443343A3465
:0821740000344C343A3400340D
:1021820000307005F80000307105F90080307205EA
:10219200FA007F307305FB007B087A047904780427
:1021A200031DD428D528DD280030F3000030F200CA
:1021B2000030F1000030F00000307405F80000300B
:1021C2007505F90080307605FA007F307705FB004F
:1021D2007B087A0479047804031DF028F128F92891
:1021E2000030F7000030F6000030F5000030F40057
:1021F200F31FFC28FD2821290030F8000030F900E7
:102202000030FA008030FB007008F8027108031CED
:10221200710F0C290D29F9027208031C720F122981
:102222001329FA027308031C730F18291929FB02D8
:102232007B08F3007A08F2007908F1007808F000D0
:10224200F71F2429252949290030F8000030F90018
:102252000030FA008030FB007408F8027508031C95
:10226200750F34293529F9027608031C760F3A29AD
:102272003B29FA027708031C770F40294129FB0208
:102282007B08F7007A08F6007908F5007808F40070
:102292008030F3068030F70677087302031D5B294E
:1022A20076087202031D5B2975087102031D5B2902
:1022B2007408700203185E295F29612903106229DC
:1022C200031408000A168A1512210A168A11F4014B
:1022D200F40A01300A128A1103200A168A11A9305F
:1022E200F5008030F6000A168A15A2220A168A1113
:1022F200913083120313EE006E0883160313A000BD
:102302006108A4006008A3005F08A2005E08A100A3
:10231200CC300A128A118A210A168A1103308312DA
:102322000313EE006E08F40001300A128A11032032
:102332000A168A11CC30F5000130F6000A168A1509
:10234200A2220A168A111A3083120313EF00F73001
:10235200EE00EE0BAA29EF0BAA29AF290A3083124D
:102362000313EE006E08F40001300A128A110320F2
:102372000A168A11A630F5008030F6000A168A1570
:10238200A2220A168A11913083120313EE006E08FC
:1023920083160313A0005D08A4005C08A3005B0879
:1023A200A2005A08A100B8300A128A118A210A161C
:1023B2008A110C3083120313EE006E08F400013010
:1023C2000A128A1103200A168A11B830F500013068
:1023D200F6000A168A15A2220A168A111A308312E8
:1023E2000313EF00F730EE00EE0BF529EF0BF529A2
:1023F200FA29133083120313EE006E08F400013041
:102402000A128A1103200A168A11AC30F5008030B4
:10241200F6000A168A15A2220A168A119130831230
:102422000313EE006E0883160313A0005908A400DC
:102432005808A3005708A2005608A100A4300A12A7
:102442008A118A210A168A11153083120313EE00AB
:102452006E08F40001300A128A1103200A168A114A
:10246200A430F5000130F6000A168A15A2220A16D7
:102472008A111A3083120313EF00F730EE00EE0BCD
:10248200402AEF0B402A452A1C3083120313EE0028
:102492006E08F40001300A128A1103200A168A110A
:1024A2009630F5008030F6000A168A15A2220A1626
:1024B2008A11913083120313EE006E088316031300
:1024C200A0005508A4005408A3005308A200520813
:1024D200A10090300A128A118A210A168A111F302D
:1024E20083120313EE006E08F40001300A128A11FF
:1024F20003200A168A119030F5000130F6000A1600
:102502008A15A2220A168A111A3083120313EF00C7
:10251200F730EE00EE0B8B2AEF0B8B2A902AF40198
:10252200F40A02300A128A1103200A168A119A301A
:10253200F5008030F6000A168A15A2220A168A11C0
:10254200913083120313EE006E0883160313A0006A
:102552005108A4005008A3004F08A2004E08A10091
:1025620038300A128A118A210A168A11043083121B
:102572000313EE006E08F40002300A128A110320DF
:102582000A168A113830F5000130F6000A168A154B
:10259200A2220A168A111A3083120313EF00F730AF
:1025A200EE00EE0BD22AEF0BD22AD72A0B3083127F
:1025B2000313EE006E08F40002300A128A1103209F
:1025C2000A168A119E30F5008030F6000A168A1526
:1025D200A2220A168A11913083120313EE006E08AA
:1025E20083160313A0004D08A4004C08A3004B0857
:1025F200A2004A08A10024300A128A118A210A166E
:102602008A110E3083120313EE006E08F4000230BA
:102612000A128A1103200A168A112430F5000130A9
:10262200F6000A168A15A2220A168A111A30831295
:102632000313EF00F730EE00EE0B1D2BEF0B1D2BFB
:10264200222B153083120313EE006E08F4000230C1
:102652000A128A1103200A168A11A230F50080306C
:10266200F6000A168A15A2220A168A1191308312DE
:102672000313EE006E0883160313A0004908A4009A
:102682004808A3004708A2004608A10010300A1219
:102692008A118A210A168A11183083120313EE0056
:1026A2006E08F40002300A128A1103200A168A11F7
:1026B2001030F5000130F6000A168A15A2220A1619
:1026C2008A11823083120313EF00DD30EE00EE0B2D
:1026D200682BEF0B682B080083120313D1006E30B6
:1026E2005102031C752B762B832C3F30A700003040
:1026F200A6000030A5000030A4006430F6000030CF
:10270200F7005108C200C3014208F8004308F9006B
:102712000A168A15E4220A168A117608831203130E
:10272200C40001300310C40DFF3E031D932B0310A0
:10273200440D7D3E84000A168A110A200A168A1167
:10274200C5000A168A110A200A168A11C6000A163C
:102752008A110A200A168A11C7000A168A110A204B
:102762000A168A11C8004808AB004708AA004608A2
:10277200A9004508A8000A128A159F240A168A1180
:10278200831203132708D0002608CF002508CE00A5
:102792002408CD000A30F6000030F7005108C200CC
:1027A200C3014208F2004308F3006430F000003035
:1027B200F1000A168A1568220A168A117108F900B0
:1027C2007008F8000A168A15E4220A168A11760899
:1027D20083120313C40001300310C40DFF3E031D16
:1027E200ED2B0310440D593E84000A168A110A206B
:1027F2000A168A11C5000A168A110A200A168A11B7
:10280200C6000A168A110A200A168A11C7000A1679
:102812008A110A200A168A11C8004808A700470828
:10282200A6004608A5004508A4005008AB004F08C2
:10283200AA004E08A9004D08A8000A128A159F2472
:102842000A168A11831203132708CC002608CB002C
:102852002508CA002408C9000A30F0000030F1003F
:102862005108C200C3014208F2004308F3000A16ED
:102872008A1568220A168A11700883120313C4008B
:1028820001300310C40DFF3E031D422C0310440D02
:10289200353E84000A168A110A200A168A11C500DA
:1028A2000A168A110A200A168A11C6000A168A1105
:1028B2000A200A168A11C7000A168A110A200A1665
:1028C2008A11C8004808A7004708A6004608A500C4
:1028D2004508A4004C08AB004B08AA004A08A9000E
:1028E2004908A8000A128A159F240A168A1183121F
:1028F20003132708C1002608C0002508BF002408CA
:10290200BE00772D0B305102031C882C892C342DEC
:102912003F30A7000030A6000030A5000030A40020
:102922000A30F6000030F7005108C200C301420825
:10293200F8004308F9000A168A15E4220A168A11D9
:10294200760883120313C40001300310C40DFF3E46
:10295200031DA62C0310440D593E84000A168A1149
:102962000A200A168A11C5000A168A110A200A16B6
:102972008A11C6000A168A110A200A168A11C7008D
:102982000A168A110A200A168A11C8004808AB00E2
:102992004708AA004608A9004508A8000A128A1595
:1029A2009F240A168A11831203132708D0002608CF
:1029B200CF002508CE002408CD000A30F0000030F8
:1029C200F1005108C200C3014208F2004308F300BB
:1029D2000A168A1568220A168A11700883120313CE
:1029E200C40001300310C40DFF3E031DF32C03107D
:1029F200440D353E84000A168A110A200A168A11ED
:102A0200C5000A168A110A200A168A11C6000A1679
:102A12008A110A200A168A11C7000A168A110A2088
:102A22000A168A11C8004808A7004708A6004608E7
:102A3200A5004508A4005008AB004F08AA004E08A4
:102A4200A9004D08A8000A128A159F240A168A11A5
:102A5200831203132708C1002608C0002508BF00FF
:102A62002408BE00772D3F30A7000030A6000030BA
:102A7200A5000030A4005108C20001300310C20DAD
:102A8200FF3E031D3F2D0310420D353E84000A1602
:102A92008A110A200A168A11C3000A168A110A200C
:102AA2000A168A11C4000A168A110A200A168A1105
:102AB200C5000A168A110A200A168A11C60046089B
:102AC200AB004508AA004408A9004308A8000A125E
:102AD2008A159F240A168A11831203132708C1003C
:102AE2002608C0002508BF002408BE000800831283
:102AF200031355088039DA005A08E2005508DA0053
:102B02005A07DB005B08E400D41F882D892D8A2D2B
:102B12006414640803198E2D8F2D9F2D640A031DE2
:102B2200932D942D9C2D0030D5000030D400003020
:102B3200D3000030D200D417D501A72D0030D50024
:102B42000030D4000030D3000030D2005908803960
:102B5200DA005A08E300630862060319B12DB22DA8
:102B6200B32D62175908DA005A07DB005B08E3004D
:102B7200D81FBC2DBD2DBE2D631463080319C22DB1
:102B8200C32DD32D630A031DC72DC82DD02D0030B0
:102B9200D9000030D8000030D7000030D600D81756
:102BA200D901DB2D0030D9000030D8000030D70029
:102BB2000030D600640863020318E02DE12D252EB3
:102BC200621FE42DE52DE92D8030DA005A08E20675
:102BD2006408DA005A08E5006308DA005A08E400DB
:102BE2006508DA005A08E3005208DA005A08E500DC
:102BF2005608DA005A08D2006508DA005A08D600E8
:102C02005308DA005A08E5005708DA005A08D300D8
:102C12006508DA005A08D7005408DA005A08E500B5
:102C22005808DA005A08D4006508DA005A08D800B1
:102C32005508DA005A08E5005908DA005A08D500A2
:102C42006508DA005A08D900E5016308DA00DB01F9
:102C52005B08DD0064085A02DC00031CDD035D082A
:102C6200803AFF0080307F02031D392E1A305C0249
:102C7200031C3C2E3D2E7A2E831203135508540456
:102C820053045204031D462E482E0130492E0030B3
:102C9200DA005A08E5000030D5000030D4000030D8
:102CA200D3000030D2006308DA005A08E400822E12
:102CB200651C5C2E5D2E662E6508DA0003105A0C28
:102CC2000138DB005B08E500682E0310E50C521C9E
:102CD2006B2E6C2E6D2EE5170130DA00550DD50CDA
:102CE200D40CD30CD20CDA0B6F2E0130DA005A0856
:102CF200E4078312031363086402031C812E822EED
:102D0200592E621B852E862ED12E6408031D8A2E13
:102D12008B2E942E0030D5000030D4000030D3002A
:102D22000030D200FF2F5608D207570803110318AC
:102D3200013E03199D2ED307580803110318013EC3
:102D42000319A42ED407590803110318013E0319CD
:102D5200AB2ED507551CAE2EAF2E852F651CB22E7D
:102D6200B32EBC2E6508DA0003105A0C0138DB00C2
:102D72005B08E500BE2E0310E50C521CC12EC22ECC
:102D8200C32EE5170130DA00550DD50CD40CD30C47
:102D9200D20CDA0BC52E0130DA005A08E407852F6F
:102DA2005508803AFF005908803A7F02031DE32E3E
:102DB20058085402031DE32E57085302031DE32E45
:102DC200560852020318E62EE72E3F2FFF30DA0094
:102DD200FF30DB00FF30DC00FF30DD005608DE0094
:102DE2005708DF005808E0005908E1005208DE02E7
:102DF2005308031C530FFE2EFF2EDF025408031C40
:102E0200540F042F052FE0025508031C550F0A2FFB
:102E12000B2FE1025E08DA075F0803185F0F122F1B
:102E2200132FDB0760080318600F182F192FDC0718
:102E320061080318610ADD075D08D5005C08D4004B
:102E42005B08D3005A08D2008030DA005A08E20642
:102E5200E509E50A6508031D2F2F302F4D2F01309C
:102E6200D207003003180130D307003003180130B5
:102E7200D407003003180130D5074D2F5608D2026F
:102E82005708031C570FD3025808031C580FD402CB
:102E92005908031C590FD50255085404530452040F
:102EA200031D542F552F812F6508031D592F5A2FAB
:102EB200812F0030D5000030D4000030D300003024
:102EC200D200FF2F0130DA000310D20DD30DD40D42
:102ED200D50DDA0B652FE51F6F2F702F712F52144E
:102EE200651C742F752F782F0314E50D7A2F0310AC
:102EF200E50D640803197E2F7F2F812F0130E40234
:102F0200D41F842F852F632FE301E51F892F8A2F7A
:102F1200982F65087F3903198F2F902F932FE30184
:102F2200E30A982F521C962F972F982F902F630801
:102F320003199C2F9D2FD12F0130D2070030031887
:102F42000130D307003003180130D40700300318D2
:102F52000130D507551CAE2FAF2FD12F5208DA0002
:102F62005308DB005408DC005508DD000130DE00A8
:102F72005D0DDD0CDC0CDB0CDA0CDE0BB92F5D0811
:102F8200D5005C08D4005B08D3005A08D200640A5A
:102F92000319CC2FCD2FD12F0130DA005A08E407C4
:102FA200640A0319D52FD62FDB2F6408031DDA2FED
:102FB200DB2FE92F0030D5000030D4000030D300E1
:102FC2000030D2006408031DE72FE82FE92FE20149
:102FD200641CEC2FED2FEF2FD417F32F7F30DA0084
:102FE2005A08D4056408DA0003105A0CDB005B08A7
:0E2FF200D500E21FFD2FFE2FFF2FD517080080
:1031FE0064008001840A04060319003404060029C1
:10320E00730872047104700403190E290F29112911
:10321E008030F306080000300A168A151F210A16A0
:10322E008A1501300A168A151F210A168A150800FA
:10323E00F30083120313061173080A168A15392137
:10324E000A168A158312031386140630F2003030E4
:10325E00F100F10B3029F20B302900008312031319
:10326E0086100800F000701C3D293E294229831269
:10327E00031306164529831203130612F01C482960
:10328E0049294B2986164C298612701D4F29502923
:10329E005229061753290613F01D56295729592965
:1032AE0086175A2986130800803083120313E90605
:1032BE006D08D5006C08D4006B08D3006A08D200E4
:1032CE006908D9006808D8006708D7006608D600D4
:1032DE000A168A1178250A168A15831203135508C1
:1032EE00E9005408E8005308E7005208E600080019
:1032FE00F401F501701C842985298B297208F407C5
:10330E000318F50A7308F50701300310F20DF30DDB
:10331E00FF3E031D8C2901300310F10CF00CFF3E13
:10332E00031D932970087104031D9E299F2981296D
:10333E007508F1007408F0000800F800F401F501BA
:10334E007008F200F3017208F6007308F700781C9B
:10335E00B129B229B8297608F4070318F50A7708B7
:10336E00F50701300310F60DF70DFF3E031DB929C9
:10337E000310F80C7808031DC529C629AE29750857
:10338E00F1007408F00008008312031388168815E4
:10339E0088140714081287140811081708108715C7
:1033AE00071188170330F2008A30F1005530F00013
:1033BE00F00BDF29F10BDF29F20BDF29E62983124F
:1033CE000313081687140815081708148715071510
:1033DE0088170330F2008A30F1005530F000F00B00
:1033EE00F629F10BF629F20BF629FD2908008312B6
:1033FE0003138816881588140714081287140811E9
:10340E00081708108715071188170330F2008A3045
:10341E00F1005530F000F00B122AF10B122AF20BCC
:10342E00122A192A8312031308168714081508176F
:10343E0008148715071588170330F2008A30F1003B
:10344E005530F000F00B292AF10B292AF20B292A0C
:10345E00302A0800F40074080F39F1007108F200E8
:10346E007408F039F1007108F30083120313061586
:10347E007308F10004300310F10CFF3E031D422AC5
:10348E0071080A168A1539210A168A158312031332
:10349E0086140D30F100F10B522A8312031386109D
:1034AE0072080A168A1539210A168A158312031311
:1034BE0086140D30F100F10B622A8312031386106D
:1034CE0008007008710403196D2A6E2A9D2AF501F1
:1034DE00F50A7C2A01300310F00DF10DFF3E031D9D
:1034EE00722A0130F4007408F507F11F7F2A802A32
:1034FE00712A71087302031D862A70087202031C5A
:10350E00892A8A2A902A7008F2027108031CF30392
:10351E00F30201300310F10CF00CFF3E031D912A53
:10352E000130F502031D9C2A9D2A802A7308F100A2
:10353E007208F0000800FA01FB01C72A7A08750725
:10354E00F8007608F7000318F70AFA1FAF2AF703F8
:10355E007708F900790883120313FF0078088400B6
:10356E000A168A1100200A168A150A168A153122A1
:10357E000A168A150130FA070318FB0A0030FB07FA
:10358E007A087507F8007608F7000318F70AFA1F8D
:10359E00D12AF7037708F900790883120313FF0085
:1035AE00780884000A168A1100200A168A15003A35
:1035BE00031DE22AE32AA52A0800FB01FC01760876
:1035CE0077040319EB2AEC2A232BFD01FD0AFA2AB4
:1035DE0001300310F60DF70DFF3E031DF02A0130EA
:1035EE00FA007A08FD07F71FFD2AFE2AEF2A01309E
:1035FE000310FB0DFC0DFF3E031DFF2A7708790219
:10360E00031D0B2B76087802031C0E2B0F2B162B8B
:10361E007608F8027708031CF903F9027B140130CF
:10362E000310F70CF60CFF3E031D172B0130FD02A5
:10363E00031D222B232BFE2A7C08F7007B08F600A5
:10364E00080000307005F80000307105F900803078
:10365E007205FA007F307305FB007B087A0479044B
:10366E007804031D3B2B3C2B442B0030F300003021
:10367E00F2000030F1000030F00000307405F80068
:10368E0000307505F90080307605FA007F30770539
:10369E00FB007B087A0479047804031D572B582B02
:1036AE00602B0030F7000030F6000030F5000030DF
:1036BE00F40077087306031D6E2B76087206031D41
:1036CE006E2B75087106031D6E2B74087006031998
:1036DE00712B722B742B0310752B031408007308B7
:1036EE0072047104700403197D2B7E2BC12BF9011A
:1036FE00F90A8E2B0130F8000310F00DF10DF20DCA
:10370E00F30DF80B832B0130F8007808F907F31F3F
:10371E00912B922B812B73087702031DA02B72081D
:10372E007602031DA02B71087502031DA02B7008D5
:10373E007402031CA32BA42BB22B7008F402710885
:10374E00031C710FF5027208031C720FF602730848
:10375E00031C730FF70201300310F30CF20CF10C83
:10376E00F00CFF3E031DB32B0130F902031DC02BDD
:10377E00C12B922B7708F3007608F2007508F10042
:10378E007408F0000800F601F31FCE2BCF2BD62BBA
:10379E00F209F309F20A0319F30AF601F60AF11F08
:1037AE00D92BDA2BDF2BF009F109F00A0319F10AF4
:1037BE00700871040319E42BE52B142CF501F50A9E
:1037CE00F32B01300310F00DF10DFF3E031DE92B1D
:1037DE000130F4007408F507F11FF62BF72BE82BD8
:1037EE0071087302031DFD2B70087202031C002C5E
:1037FE00012C072C7008F2027108031CF303F3026C
:10380E0001300310F10CF00CFF3E031D082C0130AB
:10381E00F502031D132C142CF72B76080319182C04
:10382E00192C1E2CF209F309F20A0319F30A730874
:10383E00F1007208F000080000300A168A153921CE
:10384E000A168A151A30F500F830F400F40B2D2CF8
:10385E00F50B2D2C000003300A168A151F210A16AF
:10386E008A150730F5007D30F400F40B3C2CF50B77
:10387E003C2C03300A168A151F210A168A150F30A2
:10388E00F5004730F400F40B4A2CF50B4A2C4F2C64
:10389E0003300A168A151F210A168A1502300A16D7
:1038AE008A151F210A168A1502300A168A151F213B
:1038BE000A168A1508300A168A151F210A168A1545
:1038CE0000300A168A151F210A168A150C300A16A0
:1038DE008A151F210A168A1500300A168A151F210D
:1038EE000A168A1506300A168A151F210A168A1517
:1038FE0008000030FC000030FB000030FA00003001
:10390E00F900730872047104700403198F2C902C43
:10391E00DD2CFD01FD0AA02C0130F8000310F00D86
:10392E00F10DF20DF30DF80B952C0130F80078081F
:10393E00FD07F31FA32CA42C932C0130F8000310C9
:10394E00F90DFA0DFB0DFC0DF80BA62C7308770282
:10395E00031DBB2C72087602031DBB2C7108750269
:10396E00031DBB2C70087402031CBE2CBF2CCE2C66
:10397E007008F4027108031C710FF5027208031C23
:10398E00720FF6027308031C730FF70279140130DD
:10399E000310F30CF20CF10CF00CFF3E031DCF2CB8
:1039AE000130FD02031DDC2CDD2CA42C7C08F30061
:1039BE007B08F2007A08F1007908F0000800831203
:1039CE000313A101F81FEC2CED2CF42CF709F809C8
:1039DE00F70A0319F80AA101A10AFA1FF72CF82C0D
:1039EE00012DF909FA09F90A0319FA0A0130FB0047
:1039FE007B08A106A201A301770878040319082DFC
:103A0E00092D402DA001A00A172D01300310F70D2E
:103A1E00F80DFF3E031D0D2D0130FB007B08A007A6
:103A2E00F81F1A2D1B2D0C2D01300310A20DA30D06
:103A3E00FF3E031D1C2D78087A02031D282D7708E2
:103A4E007902031C2B2D2C2D332D7708F9027808C3
:103A5E00031CFA03FA02221401300310F80CF70CBF
:103A6E00FF3E031D342D0130A002031D3F2D402DBE
:103A7E001B2D21080319442D452D4A2DA209A309FA
:103A8E00A20A0319A30A2308F8002208F700080067
:103A9E00031083120313530D540DD5005508DB008C
:103AAE005B08031D5B2D5C2D652D0030D4000030AE
:103ABE00D3000030D2000030D100CA2D5108D500FD
:103ACE005208D6005308D7005408D8001F300310F0
:103ADE00D80CD70CD60CD50CFF3E031D6E2D5508F9
:103AEE00D9005908DA00D317FF30D105FF30D205BF
:103AFE00FF30D3050030D4059630DB02DB1F882D56
:103B0E00892DA32D5B08803A973E03188F2D902D9B
:103B1E00912D5C2D01300310D40CD30CD20CD10C92
:103B2E00FF3E031D922D0130D5005508DB07031D06
:103B3E00A12DA22D912DBA2D20305B02031CA82D94
:103B4E00A92DB52D5C2D0130D5000310D10DD20D50
:103B5E00D30DD40DD50BAC2D0130DB025B08031D4C
:103B6E00B92DBA2DAA2D5A080319BE2DBF2DCA2D57
:103B7E00D109D209D309D409D10A0319D20A0319DA
:103B8E00D30A0319D40A0800F80078080319D02DB7
:103B9E00D12DE52DF31FD42DD52DE52D7009FA006D
:103BAE007109FB007209FC007309FD00FA0A031982
:103BBE00FB0A0319FC0A0319FD0AED2D7308FD001B
:103BCE007208FC007108FB007008FA00730872049A
:103BDE0071047004031DF42DF52DFE2D0030F3003D
:103BEE000030F2000030F1000030F000842E9630EC
:103BFE00F4007408F900102E0130F4007408F9076F
:103C0E0001300310FD0CFC0CFB0CFA0CFF3E031DE7
:103C1E00082EFE307D05031D152E162E032E322E78
:103C2E000130F4007408F9070130FA070030031868
:103C3E000130FB07003003180130FC070030031879
:103C4E000130FD0701300310FD0CFC0CFB0CFA0CCF
:103C5E00FF3E031D2A2EFF307D05031D372E382E05
:103C6E00172E442E0130F9020130F4000310FA0D24
:103C7E00FB0DFC0DFD0DF40B3D2EFC1B472E482EAF
:103C8E004E2E0230790203184D2E4E2E392E7918F3
:103C9E00512E522E5A2EFF30FA05FF30FB057F3083
:103CAE00FC05FF30FD050310F90C7908F400F50151
:103CBE00F601F70118300310F40DF50DF60DF70DA2
:103CCE00FF3E031D622E7408FA047508FB04760885
:103CDE00FC047708FD0478080319762E772E7C2EC7
:103CEE00F31F7A2E7B2E7C2EFD177D08F3007C08A9
:103CFE00F2007B08F1007A08F00008007008F80066
:103D0E007108F9007208FA000310790D7A0DFB00A4
:103D1E007B0883120313A5002508031D972E982EEA
:103D2E00A12E0030F3000030F2000030F100003020
:103D3E00F000412F7408F8007508F9007608FA00B3
:103D4E000310790D7A0DFB007B08A4002408031DD7
:103D5E00B12EB22EB32E982EF117FF30F005FF3094
:103D6E00F1050030F205F517FF30F405FF30F505CB
:103D7E000030F6050030A3000030A2000030A10094
:103D8E000030A0007F30A50298302407F800780894
:103D9E00A5021830F8007808A4000130F8000310CE
:103DAE00A00DA10DA20DA30DF80BD62E7608720252
:103DBE00031DE72E75087102031DE72E74087002AD
:103DCE00031CEA2EEB2EF62E7408F0027508031C67
:103DDE00750FF1027608031C760AF20220140130E8
:103DEE000310F00DF10DF20DFF3E031DF72E013005
:103DFE00A402031D032F042FD42EA51F072F082F57
:103E0E00222F2508803A973E03180E2F0F2F102FC2
:103E1E00982E01300310A30CA20CA10CA00CFF3E97
:103E2E00031D112F0130F8007808A507031D202F60
:103E3E00212F102F392F18302502031C272F282F42
:103E4E00342F982E0130F8000310A00DA10DA20DF5
:103E5E00A30DF80B2B2F0130A5022508031D382FBB
:103E6E00392F292F2308F3002208F2002108F10030
:103E7E002008F00008000310720D730DF80078088A
:103E8E0083120313A5002508031D4E2F4F2F582F05
:103E9E000030F3000030F2000030F1000030F0008E
:103EAE00FF2F0310760D770DF8007808A400240874
:103EBE00031D622F632F642F4F2FF217FF30F00573
:103ECE00FF30F105FF30F2050030F305F617FF3035
:103EDE00F405FF30F505FF30F6050030F70500302C
:103EEE00A3000030A2000030A1000030A0007F30FF
:103EFE00A502A0302407F8007808A5022030F800AB
:103F0E007808A4000130F8000310A00DA10DA20D39
:103F1E00A30DF80B8B2F77087302031DA02F7608C5
:103F2E007202031DA02F75087102031DA02F7408C5
:103F3E007002031CA32FA42FB32F7408F002750870
:103F4E00031C750FF1027608031C760FF202770838
:103F5E00031C770FF30220140130F8000310F00D4C
:103F6E00F10DF20DF30DF80BB52F0130A402031D68
:103F7E00C12FC22F892FA51FC52FC62FE02F2508B1
:103F8E00803A9F3E0318CC2FCD2FCE2F4F2F0130CE
:103F9E000310A30CA20CA10CA00CFF3E031DCF2FEF
:103FAE000130F8007808A507031DDE2FDF2FCE2F76
:103FBE00F72F20302502031CE52FE62FF22F4F2F6F
:103FCE000130F8000310A00DA10DA20DA30DF80BEA
:103FDE00E92F0130A5022508031DF62FF72FE72F35
:103FEE002308F3002208F2002108F1002008F00057
:023FFE000800B9
:02400E00F23F7F
:00000001FF
