:020000040000FA
:060000000A128A11122809
:10000800FE00030E83120313D4000408D5000A0867
:10001800D6007F08D7000A128A15282F0A128A11DB
:1000280015288313DC30FD000E30FE00EC30FF0095
:10003800A03084000A128A15B5240A128A112030C9
:1000480084003C300A128A159C240A128A11830102
:100058000A128A112F280A128A11AE270A128A1147
:100068000A128A114B270A128A110A128A111022BF
:100078000A128A11433083160313DF004030DE0072
:100088000030DD000030DC00831203133B088316C8
:100098000313E300831203133A0883160313E200E1
:1000A80083120313390883160313E1008312031321
:1000B800380883160313E0000A128A112D260A1243
:1000C8008A110318682869286E280A128A151626C4
:1000D8000A128A1183120313330883160313DF00ED
:1000E80083120313320883160313DE0083120313EB
:1000F800310883160313DD008312031330088316B7
:100108000313DC004230E300FE30E2000030E1007F
:100118000030E0000A128A112D260A128A110318EB
:10012800962897289D280A128A15BE250A128A1130
:10013800A2280A128A1516260A128A118312031394
:10014800370883160313DF00831203133608831658
:100158000313DE0083120313350883160313DD002F
:1001680083120313340883160313DC004230E300C0
:100178008030E2000030E1000030E0000A128A110D
:100188002D260A128A110318CA28CB28F9288312A7
:1001980003132F0883160313DF00831203132E089B
:1001A80083160313DE00831203132D08831603132B
:1001B800DD00831203132C0883160313DC0043307D
:1001C800E3000030E2000030E1000030E0000A12F5
:1001D8008A112D260A128A110318F328F428F928FF
:1001E8000A128A1503250A128A1183120313370883
:1001F80083160313DF0083120313360883160313D1
:10020800DE0083120313350883160313DD008312FF
:100218000313340883160313DC004330E300003073
:10022800E2000030E1000030E0000A128A112D26B9
:100238000A128A110318212922295029831203132B
:100248002B0883160313DF00831203132A0883166F
:100258000313DE0083120313290883160313DD003A
:1002680083120313280883160313DC004330E300CA
:100278000030E2000030E1000030E0000A128A118C
:100288002D260A128A1103184A294B2950290A12C5
:100298008A15C4240A128A11831203133708831695
:1002A8000313DF0083120313360883160313DE00DB
:1002B80083120313350883160313DD008312031317
:1002C800340883160313DC004330E3004030E200B7
:1002D8000030E1000030E0000A128A112D260A12CF
:1002E8008A11031878297929A72983120313270863
:1002F80083160313DF0083120313260883160313E0
:10030800DE0083120313250883160313DD0083120E
:100318000313240883160313DC004330E300003082
:10032800E2000030E1000030E0000A128A112D26B8
:100338000A128A110318A129A229A7290A128A15C3
:10034800EE240A128A118312031337088316031343
:10035800DF0083120313360883160313DE008312AB
:100368000313350883160313DD00831203133408BF
:1003780083160313DC004330E3008030E2000030D2
:10038800E1000030E0000A128A112D260A128A11B3
:100398000318CF29D029FE298312031323088316B3
:1003A8000313DF0083120313220883160313DE00EE
:1003B80083120313210883160313DD00831203132A
:1003C800200883160313DC004330E3000030E2000A
:1003D8000030E1000030E0000A128A112D260A12CE
:1003E8008A110318F829F929FE290A128A15D9242D
:1003F8000A128A11023083160317920045309100C1
:10040800A9309000900B062A910B062A920B062A17
:1004180039280A128A111228831203139F111F12F6
:100428009F121F15053083160313EA00EA0B1A2AD8
:100438001D2A831203131E0883160313EA00EB0117
:10044800EC01ED016D08DF006C08DE006B08DD00D3
:100458006A08DC0000300A128A1171250A128A1112
:10046800831603135F0883120313BB008316031359
:100478005E0883120313BA00831603135D08831200
:100488000313B900831603135C0883120313B8001F
:100498009F151F129F121F15053083160313EA00BC
:1004A800EA0B542A572A831203131E0883160313D0
:1004B800EA00EB01EC01ED016D08DF006C08DE00DD
:1004C8006B08DD006A08DC0000300A128A11712509
:1004D8000A128A11831603135F0883120313B700E5
:1004E800831603135E0883120313B60083160313DF
:1004F8005D0883120313B500831603135C08831287
:100508000313B4009F111F169F121F150530831681
:100518000313EA00EA0B8E2A912A831203131E089A
:1005280083160313EA00EB01EC01ED016D08DF000F
:100538006C08DE006B08DD006A08DC0000300A1277
:100548008A1171250A128A11831603135F08831210
:100558000313B300831603135E0883120313B20058
:10056800831603135D0883120313B1008316031364
:100578005C0883120313B0009F151F169F121F15E6
:10058800053083160313EA00EA0BC82ACB2A831224
:1005980003131E0883160313EA00EB01EC01ED01B7
:1005A8006D08DF006C08DE006B08DD006A08DC00FF
:1005B80000300A128A1171250A128A118316031350
:1005C8005F0883120313AF00831603135E088312B8
:1005D8000313AE00831603135D0883120313AD00E3
:1005E800831603135C0883120313AC009F111F12B8
:1005F8009F161F15053083160313EA00EA0B022B1A
:10060800052B831203131E0883160313EA00EB015C
:10061800EC01ED016D08DF006C08DE006B08DD0001
:100628006A08DC0000300A128A1171250A128A1140
:10063800831603135F0883120313AB008316031397
:100648005E0883120313AA00831603135D0883123E
:100658000313A900831603135C0883120313A8006D
:100668009F151F129F161F15053083160313EA00E6
:10067800EA0B3C2B3F2B831203131E08831603132C
:10068800EA00EB01EC01ED016D08DF006C08DE000B
:100698006B08DD006A08DC0000300A128A11712537
:1006A8000A128A11831603135F0883120313A70023
:1006B800831603135E0883120313A600831603131D
:1006C8005D0883120313A500831603135C088312C5
:1006D8000313A4009F111F169F161F1505308316BC
:1006E8000313EA00EA0B762B792B831203131E08F7
:1006F80083160313EA00EB01EC01ED016D08DF003E
:100708006C08DE006B08DD006A08DC0000300A12A5
:100718008A1171250A128A11831603135F0883123E
:100728000313A300831603135E0883120313A200A6
:10073800831603135D0883120313A10083160313A2
:100748005C0883120313A000080083120313CD0072
:100758003D30C5004508C8007A2C25304E060319DF
:10076800B62BB72BC32B4E08C5004D08840045088F
:10077800831380000130C5004508CD077A2CC901D4
:100788000130BC07FF303C0784000A128A1500209C
:100798000A128A11CE00C500C6014608003A03199C
:1007A800D62B7A2C4508003A03198C2C643A031985
:1007B800E12B0D3A0319E12B7A2C480884008313A6
:1007C8000008CB00840A0008CC000230C5004508A8
:1007D800C807CC1FF02BF12BFA2B0330C5004508B6
:1007E800C904CB09CC09CB0A0319CC0ACE01CE0A1D
:1007F8004E08C5004507013E84000A128A150020EC
:100808000A128A11C6000A128A1500200A128A11D1
:10081800C70047084C02031D132C46084B02031857
:10082800162C172C182C222C0130C5004508CE0791
:1008380005304E06031D212C222CFC2B49080339B8
:100848000319272C282C332C2D30C5004D08840083
:100858004508831380000130C5004508CD074E08C0
:10086800C5004508CA00712C0A30F8000030F900AC
:100878004A08C5004507013E84000A128A1500206F
:100888000A128A11F0000A128A1500200A128A1127
:10089800F1004C08F3004B08F2000A128A156A2787
:1008A8000A128A117108FB007008FA000A128A15E8
:1008B800B2260A128A117808303E83120313C60042
:1008C8004608CE004E08C5004D088400450883132D
:1008D80080000130C5004508CD07FF30C500450838
:1008E800CA074A0A031D792C7A2C382C0130BC0718
:1008F800FF303C0784000A128A1500200A128A1168
:10090800C5004508CE004E08031D8B2C8C2CB12B3E
:100918004D0884008313800108000A128A15A42454
:100928000A128A11F401F40A01300A128A15AE2754
:100938000A128A110B3083120313CF004F08BC0030
:100948003B08F3003A08F2003908F1003808F000D3
:100958000A128A11D1260A128A1171088312031306
:10096800BE007008BD003708F3003608F2003508ED
:10097800F1003408F0000A128A11D1260A128A11ED
:10098800710883120313C0007008BF003308F30016
:100998003208F2003108F1003008F0000A128A111A
:1009A800D1260A128A11710883120313C200700833
:1009B800C1002F08F3002E08F2002D08F1002C08C2
:1009C800F0000A128A11D1260A128A1171088312BC
:1009D8000313C4007008C300BE300A128A11A92389
:1009E8000A128A111A3083120313D000F730CF008D
:1009F800CF0BFC2CD00BFC2C012D203083120313C1
:100A0800CF004F08BC002B08F3002A08F200290881
:100A1800F1002808F0000A128A11D1260A128A1158
:100A2800710883120313BE007008BD002708F30085
:100A38002608F2002508F1002408F0000A128A119D
:100A4800D1260A128A11710883120313C000700894
:100A5800BF002308F3002208F2002108F100200853
:100A6800F0000A128A11D1260A128A11710883121B
:100A78000313C2007008C100A0300A128A11A9230A
:100A88000A128A111A3083120313D000F730CF00EC
:100A9800CF0B4C2DD00B4C2D512DBE300A128A1580
:100AA80052250A128A11F401F40A02300A128A1530
:100AB800AE270A128A11A0300A128A1552250A1284
:100AC8008A11413083120313D000ED30CF00CF0BD1
:100AD8006B2DD00B6B2D702D080083160313E400CB
:100AE80064080319782D792D8D2DDF1F7C2D7D2D20
:100AF8008D2D5C09E6005D09E7005E09E8005F09E5
:100B0800E900E60A0319E70A0319E80A0319E90ADA
:100B1800952D5F08E9005E08E8005D08E7005C08BD
:100B2800E6005F085E045D045C04031D9C2D9D2D9A
:100B3800A62D0030DF000030DE000030DD00003080
:100B4800DC002C2E9630E0006008E500B82D01305E
:100B5800E0006008E50701300310E90CE80CE70C39
:100B6800E60CFF3E031DB02DFE306905031DBD2DAB
:100B7800BE2DAB2DDA2D0130E0006008E50701300D
:100B8800E607003003180130E7070030031801308A
:100B9800E807003003180130E90701300310E90CB9
:100BA800E80CE70CE60CFF3E031DD22DFF3069056B
:100BB800031DDF2DE02DBF2DEC2D0130E5020130A6
:100BC800E0000310E60DE70DE80DE90DE00BE52D5B
:100BD800E81BEF2DF02DF62D023065020318F52DD8
:100BE800F62DE12D6518F92DFA2D022EFF30E605B8
:100BF800FF30E7057F30E805FF30E9050310E50C15
:100C08006508E000E101E201E30118300310E00D9E
:100C1800E10DE20DE30DFF3E031D0A2E6008E60418
:100C28006108E7046208E8046308E9046408031932
:100C38001E2E1F2E242EDF1F222E232E242EE917D0
:100C48006908DF006808DE006708DD006608DC0068
:100C580008000030831603135C05E40000305D05CE
:100C6800E50080305E05E6007F305F05E700670835
:100C7800660465046404031D422E432E4B2E003087
:100C8800DF000030DE000030DD000030DC00003026
:100C98006005E40000306105E50080306205E6008B
:100CA8007F306305E7006708660465046404031D74
:100CB8005E2E5F2E672E0030E3000030E200003029
:100CC800E1000030E000DF1F6A2E6B2E8F2E00300F
:100CD800E4000030E5000030E6008030E7005C0802
:100CE800E4025D08031C5D0F7A2E7B2EE5025E0888
:100CF800031C5E0F802E812EE6025F08031C5F0F27
:100D0800862E872EE7026708DF006608DE00650882
:100D1800DD006408DC00E31F922E932EB72E00300E
:100D2800E4000030E5000030E6008030E7006008AD
:100D3800E4026108031C610FA22EA32EE5026208DB
:100D4800031C620FA82EA92EE6026308031C630F7A
:100D5800AE2EAF2EE7026708E3006608E2006508DA
:100D6800E1006408E0008030DF068030E3066308B5
:100D78005F02031DC92E62085E02031DC92E6108A9
:100D88005D02031DC92E60085C020318CC2ECD2E0F
:100D9800CF2E0310D02E031408000310720D730D0C
:100DA800F4007408FA007A08031DDB2EDC2EE52E09
:100DB8000030F3000030F2000030F1000030F000A5
:100DC8004A2F7008F4007108F5007208F6007308DD
:100DD800F7001F300310F70CF60CF50CF40CFF3E6F
:100DE800031DEE2E7408F8007808F900F217FF309A
:100DF800F005FF30F105FF30F2050030F3059630BD
:100E0800FA02FA1F082F092F232F7A08803A973EF3
:100E180003180F2F102F112FDC2E01300310F30CA5
:100E2800F20CF10CF00CFF3E031D122F0130F40000
:100E38007408FA07031D212F222F112F3A2F203073
:100E48007A02031C282F292F352FDC2E0130F400BD
:100E58000310F00DF10DF20DF30DF40B2C2F0130F2
:100E6800FA027A08031D392F3A2F2A2F7908031915
:100E78003E2F3F2F4A2FF009F109F209F309F00A32
:100E88000319F10A0319F20A0319F30A08000030DA
:100E98000A128A1545260A128A111A308316031374
:100EA800E100F730E000E00B572FE10B572F5C2FE4
:100EB80003300A128A1532250A128A11073083165E
:100EC8000313E1007C30E000E00B682FE10B682F92
:100ED800000003300A128A1532250A128A110F30CF
:100EE80083160313E1004730E000E00B792FE10B94
:100EF800792F03300A128A1532250A128A11023014
:100F08000A128A1532250A128A1102300A128A1523
:100F180032250A128A1108300A128A1532250A1255
:100F28008A1100300A128A1532250A128A110C30E9
:100F38000A128A1532250A128A1100300A128A15F5
:100F480032250A128A1106300A128A1532250A1227
:100F58008A110800831603138117061486100611D8
:100F68008611061286120613861301178B170B16A5
:100F78008B100B17011481140115811583120313AB
:100F8800901010169016DC308E000B308F008316F0
:100F980003130C14831203131014FF308316031366
:100FA8008500870188011F109F101F119F11831250
:100FB80003131F139F13831603139F139E0183129A
:100FC80003139E011F1406108610061186110612BF
:100FD8008612061386130710871007118711071248
:100FE8008712071387130810881008118811081230
:100FF800881208138813080008308A000408840A35
:1010080082070034013400340A3400346434003474
:10101800E83403341034273443343A3425346934FB
:10102800203441343A342534693420344C343A3449
:10103800253469342034533431343A34253469340E
:101048000034533432343A34253469342034533438
:1010580033343A34253469342034533434343A340C
:08106800253469342034003402
:1019380064008001840A04060319003404069D2CFF
:1019480000300A128A1518250A128A1501300A125F
:101958008A1518250A128A1508007E088A007F0849
:1019680082000A128A15B1240A128A158000840A94
:1019780004087D0603190034FF0A0319FE0AB52C72
:10198800831203138717033083160313DE008A308C
:10199800DD005530DC00DC0BCF2CDD0BCF2CDE0B53
:1019A800CF2C83120313871308008312031387169F
:1019B800033083160313DE008A30DD005530DC0067
:1019C800DC0BE42CDD0BE42CDE0BE42C831203137C
:1019D80087120800831203130716033083160313B4
:1019E800DE008A30DD005530DC00DC0BF92CDD0B25
:1019F800F92CDE0BF92C831203130712080083124B
:101A080003130717033083160313DE008A30DD0043
:101A18005530DC00DC0B0E2DDD0B0E2DDE0B0E2DF4
:101A28008312031307130800F3008312031306112C
:101A380073080A128A1573250A128A15831203136A
:101A480086140630F2003030F100F10B292DF20B2C
:101A5800292D000083120313861008008316031330
:101A6800DF00831203130611831603135F080A129B
:101A78008A1545260A128A1583120313861406301E
:101A880083160313DE002F30DD00DD0B492DDE0B3E
:101A9800492D4E2D8312031386100800F800F60115
:101AA800F701672D76087807F500750884000008A7
:101AB8000A128A157B260A128A150130F6070318BE
:101AC800F70A0030F70776087807F50075088400EC
:101AD80083130008031D712D722D562D0800F00088
:101AE800701C772D782D7C2D8312031306167F2DFD
:101AF800831203130612F01C822D832D852D861662
:101B0800862D8612701D892D8A2D8C2D06178D2DF8
:101B18000613F01D902D912D932D8617942D861365
:101B28000800AB2D88168815881407140812871426
:101B38000811081708108715071188171A30F100BF
:101B4800F830F000F00BA62DF10BA62D0000831243
:101B58000313091DB02DB12D962D081687140815ED
:101B68000817081487150715881788128811881010
:101B780007100800D62D881688158814071408122F
:101B880087140811081708108715071188171A30C5
:101B980083160313DD00F730DC00DC0BD12DDD0BE1
:101BA800D12DD62D83120313091DDB2DDC2DBF2D5E
:101BB80008168714081508170814871507158817B5
:101BC80088128811881007100800FF2D88168815BC
:101BD80088140714081687100815081308148711A5
:101BE800071588131A30F100F830F000F00BFA2DC1
:101BF800F10BFA2D000083120313051A042E052E8B
:101C0800092E061C082E092EEA2D08168714081519
:101C1800081708148715071588178812881188105F
:101C2800071008002E2E8816881588140714081621
:101C380087100815081308148711071588131A3018
:101C480083160313DD00F730DC00DC0B292EDD0BD7
:101C5800292E2E2E83120313051A332E342E382ED6
:101C6800061C372E382E172E081687140815081745
:101C78000814871507158817881288118810071007
:101C8800080083160313DC005C1C4B2E4C2E502ED0
:101C9800831203130616532E831203130612831698
:101CA8000313DC1C582E592E5D2E8312031386163F
:101CB800602E831203138612831603135C1D652E90
:101CC800662E6A2E8312031306176D2E83120313D2
:101CD800061383160313DC1D722E732E772E8312C0
:101CE800031386177A2E8312031386130800F40051
:101CF80074080F39F1007108F2007408F039F10026
:101D08007108F3008312031306157308F1000430F9
:101D18000310F10CFF3E031D8C2E71080A128A1560
:101D280073250A128A158312031386140D30F100E5
:101D3800F10B9C2E83120313861072080A128A155F
:101D480073250A128A158312031386140D30F100C5
:101D5800F10BAC2E8312031386100800780879045F
:101D68000319B72EB82EE72EFD01FD0AC62E013045
:101D78000310F80DF90DFF3E031DBC2E0130FC00C9
:101D88007C08FD07F91FC92ECA2EBB2E79087B02D5
:101D9800031DD02E78087A02031CD32ED42EDA2EF7
:101DA8007808FA027908031CFB03FB0201300310D0
:101DB800F90CF80CFF3E031DDB2E0130FD02031D5C
:101DC800E62EE72ECA2E7B08F9007A08F8000800EC
:101DD80049344E34493443344934413400340034AE
:101DE800003400340034003400340034003400344B
:101DF800003400340034003400340034003400343B
:101E080000340034003400340034003449344E3493
:101E18004934433449344134003400340034003404
:101E2800003400340034003400340034003400340A
:101E380000340034003400340034003400340034FA
:101E480000340034003400348B1C2B2F2C2F4A2FE5
:101E580086150A128A1595250A128A1504308312E6
:101E68000313D3000C30D2003330D100D10B3A2FFA
:101E7800D20B3A2FD30B3A2F0A128A15E9250A12E8
:101E88008A158B108312031386115F2F0C1C4D2F9C
:101E98004E2F5F2F0C10DC308E000B308F0064004B
:101EA8008312031386150A128A1191240A128A15BD
:101EB8008312031386115708FF0056088A00550835
:101EC8008400540E8300FE0E7E0E0900F501F60113
:101ED800700871040319712F722FA92FF701F70ADF
:101EE800802F01300310F00DF10DFF3E031D762FFA
:101EF8000130F4007408F707F11F832F842F752F22
:101F080001300310F50DF60DFF3E031D852F7108F6
:101F18007302031D912F70087202031C942F952FD2
:101F28009C2F7008F2027108031CF303F302751466
:101F380001300310F10CF00CFF3E031D9D2F013002
:101F4800F702031DA82FA92F842F7608F100750822
:101F5800F0000800F7007703031DB32FB42FD72F25
:101F680074087F3EF5007508FA007A08F500043019
:101F78000310F50CFF3E031DBC2F7508F60076080C
:101F8800F8007A080F39F5007508F90078080A1280
:101F98008A1518250A128A1579080A128A15182529
:101FA8000A128A15FF2F02307706031DDC2FDD2F5A
:101FB800FF2F7408BF3EF5007508FA007A08F5008F
:101FC80004300310F50CFF3E031DE52F7508F600DD
:101FD8007608F8007A080F39F5007508F9007808CE
:101FE8000A128A1518250A128A1579080A128A15FA
:081FF80018250A128A150800E1
:02400E00F63F7B
:00000001FF
