:020000040000FA
:100000000A128A11FC2FFF1B0D2883137F188317F8
:100010000008840A0319FF0A080000308A00040857
:10002000840A820700340034003480343F340034C2
:1000300000342034413400340034C83442340034B5
:1000400000347A344434003440341C3446340034B0
:100050005034C33447340034243474344934803445
:10006000963418344B342034BC34BE344C342834E9
:100070006B346E344E34F934023415345034EC346D
:100080007834AD346034CA34F234493471340034D5
:10009000003480343F34CD34CC34CC343D340A3455
:1000A000D73423343C346F34123483343A34173425
:1000B000B734D1343834AC34C53427343734BD3454
:1000C0003734863435349534BF34D63433347734CA
:1000D000CC342B3432345F34703489343034FF34D0
:1000E000E634DB342E340834E5343C341E346034DA
:1000F0004234A2340D3401340034003400340A3464
:100100000034003400346434003400340034E83403
:100110000334003400341034273400340034A03465
:10012000863401340034403442340F340034803497
:100130009634983400340034E134F5340534003416
:10014000CA349A343B3425342E3432346634003485
:10015000533431343A340034533432343A34003482
:10016000533433343A340034533434343A3400346E
:1001700041343A34003443343A3400344C343A3461
:02018000003449
:100184000310720D730DF800780883120313A50091
:100194002508031DCE28CF28D8280030F3000030CE
:1001A400F2000030F1000030F0007F290310760DDA
:1001B400770DF8007808A4002408031DE228E3283A
:1001C400E428CF28F217FF30F005FF30F105FF30A7
:1001D400F2050030F305F617FF30F405FF30F5059E
:1001E400FF30F6050030F7050030A3000030A20010
:1001F4000030A1000030A0007F30A502A030240709
:10020400F8007808A5022030F8007808A40001302E
:10021400F8000310A00DA10DA20DA30DF80B0B29DE
:1002240077087302031D202976087202031D202912
:1002340075087102031D202974087002031C232908
:10024400242933297408F0027508031C750FF10280
:100254007608031C760FF2027708031C770FF3026B
:1002640020140130F8000310F00DF10DF20DF30D20
:10027400F80B35290130A402031D4129422909291B
:10028400A51F4529462960292508803A9F3E031861
:100294004C294D294E29CF2801300310A30CA20C60
:1002A400A10CA00CFF3E031D4F290130F800780873
:1002B400A507031D5E295F294E29772920302502D1
:1002C400031C652966297229CF280130F800031020
:1002D400A00DA10DA20DA30DF80B69290130A502F3
:1002E4002508031D7629772967292308F3002208A6
:1002F400F2002108F1002008F0000800A330831662
:100304000313A7002708B000E32F25304306031981
:100314008C298D299D294308A70020088400831770
:10032400211C8313270880000130A0070318A10AA9
:100334000030A107E32FB101B201220884000A12A0
:100344008A110D200A128A112E3A031DAA29AB29FB
:10035400F02932170130A7002708A207BD01BE010A
:10036400DF290A30F0000030F100831603133E0841
:10037400F3003D08F2000A168A15AF210A128A1109
:10038400710883160313BE007008BD0022088400A0
:100394000A128A110D200A128A11D03EA700FF30DA
:1003A40003180030A8002708BD070318BE0A280850
:1003B400BE070130A7002708A207220884000A12FA
:1003C4008A110D200A128A110A168A1557210A1257
:1003D4008A110318EE29EF29B329F629BD01BE01BC
:1003E4003216F6293215122A013083160313A20796
:1003F400FF30220784000A128A110D200A128A1182
:10040400C300A700A8012808003A03190A2AE32F09
:100414002708003A0319F52F663A0319F429E32F44
:1004240000303105A70007303205A800270828044A
:1004340003191D2A1E2A972F321E212A222A262A10
:100444000630BD000030BE0030088400831300086D
:10045400BF00840A0008C000840A0008C100840A9E
:100464000008C2000430A7002708B0074208F300C0
:100474004108F2004008F1003F08F0000030F700A6
:100484000030F6000030F5000030F4000A168A153A
:10049400E7250A128A110318502A512A6E2A831654
:1004A40003134208F3004108F2004008F1003F083A
:1004B400F0000A168A154C210A128A117308831651
:1004C4000313C2007208C1007108C0007008BF00A5
:1004D4000330B1040030B20483160313B701B8012A
:1004E4004208F3004108F2004008F1003F08F00020
:1004F4000030F7000030F6000030F5000030F40062
:100504000A168A15F2220A128A1103188A2A8B2AD9
:100514007B2B031083160313410D420D823EB7005B
:10052400FF3003180030B800FF30B7070318B80ACB
:10053400FF30B8070330F0000030F1003808F30052
:100544003708F2000A168A15AF210A128A117108B7
:1005540083160313B8007008B7000A30F7000030A0
:10056400F8003808FA003708F9000A168A15022537
:100574000A128A11780883160313B8007708B700A3
:10058400B81FC52AC62ACC2AFF30B7070318B80AF1
:10059400FF30B8073703FF3A0A168A11A1240A125A
:1005A4008A1183120313410883160313BC008312B8
:1005B4000313400883160313BB00831203133F087D
:1005C40083160313BA00831203133E08831603131E
:1005D400B900420883120313A700831603134108CA
:1005E40083120313A6008316031340088312031314
:1005F400A500831603133F0883120313A400831674
:1006040003133C0883120313AB00831603133B0844
:1006140083120313AA00831603133A0883120313E5
:10062400A90083160313390883120313A8000A12BE
:100634008A1520200A128A118312031327088316AD
:100644000313BC0083120313260883160313BB0091
:1006540083120313250883160313BA0083120313AA
:10066400240883160313B9003C08F3003B08F20086
:100674003A08F1003908F0003F30F7008030F60006
:100684000030F5000030F4000A168A15E7250A1236
:100694008A1103184E2B4F2B582BFF30831603134C
:1006A400B7070318B80AFF30B8077B2B8316031368
:1006B4003C08F3003B08F2003A08F1003908F00066
:1006C4004130F7002030F6000030F5000030F4002F
:1006D4000A168A15E7250A128A11031C722B732B3A
:1006E4007B2B013083160313B7070318B80A0030B5
:1006F400B807831603133E08803AFF0080307F0258
:10070400031D862B0D303D020318892B8A2BD12B18
:10071400831603133D080A168A110E200A128A1141
:10072400831203134108D5004008D4003F08D300C6
:100734003E08D20083160313420883120313D90020
:1007440083160313410883120313D800831603137B
:10075400400883120313D700831603133F08831240
:100764000313D6000A168A1119220A128A11831257
:100774000313550883160313C2008312031354088A
:1007840083160313C1008312031353088316031340
:10079400C00083120313520883160313BF00831689
:1007A40003133808803AFF0080307F02031DDC2BDE
:1007B4000A3037020318DF2BE02B312C8316031386
:1007C4004208F3004108F2004008F1003F08F0003D
:1007D4000030F7000030F6000030F5000030F4007F
:1007E4000A168A15F2220A128A110318FA2BFB2B15
:1007F400A32C83160313420883120313D400831615
:100804000313410883120313D30083160313400810
:1008140083120313D200831603133F0883120313B6
:10082400D1000A168A156B250A128A118312031342
:100834005408530452045104031D212C222CA32CCC
:10084400831603133808803AFF0080307F02031DAB
:100854002D2C02303702031C302C312CA32C831690
:1008640003133C08F3003B08F2003A08F10039088E
:10087400F0004030F7008930F6007030F5005F304A
:10088400F4000A168A15E7250A128A1103184B2C5C
:100894004C2C552CF73083160313B7070318B80AEA
:1008A400FF30B8075D2CF83083160313B70703181D
:1008B400B80AFF30B80737080A168A11A1240A12A9
:1008C4008A1183120313410883160313BC00831295
:1008D4000313400883160313BB00831203133F085A
:1008E40083160313BA00831203133E0883160313FB
:1008F400B9004208F3004108F2004008F1003F0843
:10090400F0003C08F7003B08F6003A08F500390807
:10091400F4000A128A11C2200A128A11730883167B
:100924000313B6007208B5007108B4007008B30070
:100934000030C2000030C1000030C0000030BF00F1
:10094400272D83160313420883120313D40083163E
:100954000313410883120313D300831603134008BF
:1009640083120313D200831603133F088312031365
:10097400D1000A168A156B250A128A1183120313F1
:10098400540883160313B600831203135308831603
:100994000313B50083120313520883160313B40020
:1009A40083120313510883160313B3003608F300AC
:1009B4003508F2003408F1003308F00000300A165C
:1009C4008A1589260A128A11730883120313E9000F
:1009D4007208E8007108E7007008E6008316031344
:1009E400420883120313ED00831603134108831294
:1009F4000313EC0083160313400883120313EB0064
:100A0400831603133F0883120313EA000A168A1598
:100A14008B210A128A1183120313690883160313A4
:100A2400C20083120313680883160313C1008312E0
:100A34000313670883160313C000831203136608A5
:100A440083160313BF00B701B801C301C30A4308E7
:100A5400A70001300310A70DFF3E031D2C2D03102A
:100A6400270D693E84000A128A110D200A128A1188
:100A7400A8000A128A110D200A128A11A9000A126A
:100A84008A110D200A128A11AA000A128A110D2055
:100A94000A128A11AB002B083602031D5B2D2A08AB
:100AA4003502031D5B2D29083402031D5B2D280824
:100AB400330203185E2D5F2D602D6A2D0130A700CF
:100AC4002708C3070A304306031D692D6A2D292D03
:100AD40003303105A70000303205A8002708280498
:100AE4000319752D762DF02D2D30A70020088400D4
:100AF4008317211C8313270880000130A0070318E3
:100B0400A10A0030A107F02D4308A700013003100B
:100B1400A70DFF3E031D892D0310270D693E840098
:100B24000A128A110D200A128A11F0000A128A117F
:100B34000D200A128A11F1000A128A110D200A12DC
:100B44008A11F2000A128A110D200A128A11F30086
:100B54003608F7003508F6003408F5003308F400C9
:100B64000A168A159C240A128A1173088316031321
:100B7400BC007208BB007108BA007008B9000030EC
:100B8400F3000030F2000030F1000A30F0003C08BD
:100B9400F7003B08F6003A08F5003908F4000A1695
:100BA4008A1592230A128A11730883160313BC0050
:100BB4007208BB007108BA007008B9003908303EE9
:100BC400A700200884008317211C831327088000B2
:100BD4000130A0070318A10A0030A1070130C302A5
:100BE400430A031DF62DF72D862D0F2E3030831664
:100BF4000313A700200884008317211C83132708EC
:100C040080000130A0070318A10A0030A107FF30BB
:100C1400B7070318B80AFF30B8073808803AFF004E
:100C240080307F02031D182E0130370203181B2E5B
:100C34001C2EF82D831603133E08803AFF008030E3
:100C44007F02031D272E09303D02031C2A2E2B2E62
:100C5400322E083083160313A7002708C300382E4A
:100C6400831603133D08A7002708C3004308A70001
:100C7400A8012708BD022808031CBE03BE024308BE
:100C84000319452E462E552E2E30A7002008840029
:100C94008317211C8313270880000130A007031841
:100CA400A10A0030A10743080A168A11A1240A12D6
:100CB4008A1183120313410883160313AF008312AE
:100CC4000313400883160313AE00831203133F0873
:100CD40083160313AD00831203133E088316031314
:100CE400AC002F0883120313AB00831603132E08E2
:100CF40083120313AA00831603132D08831203130C
:100D0400A900831603132C0883120313A800831667
:100D14000313420883120313A70083160313410825
:100D240083120313A60083160313400883120313CC
:100D3400A500831603133F0883120313A4000A12A9
:100D44008A1520200A128A11831203132708D4005B
:100D54002608D3002508D2002408D1000A168A15D3
:100D64006B250A128A118312031354088316031382
:100D7400B60083120313530883160313B5008312BA
:100D84000313520883160313B40083120313510888
:100D940083160313B300732F4308A7000130031015
:100DA400A70DFF3E031DD12E0310270D693E8400BD
:100DB4000A128A110D200A128A11F0000A128A11ED
:100DC4000D200A128A11F1000A128A110D200A124A
:100DD4008A11F2000A128A110D200A128A11F300F4
:100DE4003608F7003508F6003408F5003308F40037
:100DF4000A168A159C240A128A117308831603138F
:100E0400BC007208BB007108BA007008B900003059
:100E1400F3000030F2000030F1000A30F0003C082A
:100E2400F7003B08F6003A08F5003908F4000A1602
:100E34008A1592230A128A11730883160313BC00BD
:100E44007208BB007108BA007008B9003908303E56
:100E5400A700200884008317211C8313270880001F
:100E64000130A0070318A10A0030A1074308A70016
:100E740001300310A70DFF3E031D3B2F0310270D68
:100E8400693E84000A128A110D200A128A11F000A8
:100E94000A128A110D200A128A11F1000A128A110B
:100EA4000D200A128A11F2000A128A110D200A1268
:100EB4008A11F3003608F7003508F6003408F50007
:100EC4003308F4000A168A1592230A128A11730849
:100ED40083160313B6007208B5007108B4007008D5
:100EE400B3000130C302430A031D792F7A2FCE2E9B
:100EF400902F3030A700200884008317211C83130F
:100F0400270880000130A0070318A10A0030A107B8
:100F1400FF30BD070318BE0AFF30BE073D083E047C
:100F2400031D952F962F7B2FE32F3D083E04031DB1
:100F34009C2F9D2FAB2F3608350434043304031D36
:100F4400A42FA52FAB2F0130BD070318BE0A003014
:100F5400BE073E08803A803C031DB22F3D08430281
:100F64000318B52FB62FB72FC62F831603133E08C9
:100F7400803AA70080302702031DC22F43083D0298
:100F84000318C52FC62FC62F03308316031331054C
:100F9400A70000303205A800270828040319D32F1E
:100FA400D42FE32F2D30A700200884008317211CA1
:100FB4008313270880000130A0070318A10A00301A
:100FC400A1070130A207FF30220784000A128A1108
:100FD4000D200A128A11A7002708C3004308031D25
:100FE400F42FF52F8729200884008317211C8313ED
:0C0FF4008001080083010A128A15812B7D
:10100C00F30083120313061173080A168A1569215B
:10101C000A128A158312031386140630F20030303C
:10102C00F100F10B1728F20B1728000083120313A1
:10103C00861008008312031327088039AC002C0893
:10104C00B1002708AC002C07AD002D08B700A61F77
:10105C003028312832283714370803193628372816
:10106C004628370A031D3B283C2844280030A7009B
:10107C000030A6000030A5000030A400A6174E28B2
:10108C000030A7000030A6000030A5000030A400FE
:10109C002B088039AC002C08B1062B08AC002C07AF
:1010AC00AD002D08B600AA1F5C285D285E283614FA
:1010BC0036080319622863287228360A031D67282C
:1010CC00682870280030AB000030AA000030A9005E
:1010DC000030A800AA177A280030AB000030AA0014
:1010EC000030A9000030A800360803197E287F289C
:1010FC0084283708031D832884288D280030A700F6
:10110C000030A6000030A5000030A400802B24087D
:10111C00AC002C08F0002A080A168A15D4210A12F1
:10112C008A15710883120313BD007008BC003C08BB
:10113C00AC00AD01AE01AF012F08B5002E08B40014
:10114C002D08B3002C08B2003D08AC00AD01AE0177
:10115C00AF012F08BB002E08BA002D08B9002C08CF
:10116C00B8002508AC002C08F00029080A168A15CE
:10117C00D4210A128A15710883120313BD0070085A
:10118C00BC003C08AC00AD01AE01AF012C08B207AD
:10119C002D0803110318013E0319D528B3072E0897
:1011AC0003110318013E0319DC28B4072F0803119F
:1011BC000318013E0319E328B5073D08AC00AD0147
:1011CC00AE01AF012C08B8072D0803110318013E1E
:1011DC000319F128B9072E0803110318013E03194E
:1011EC00F828BA072F0803110318013E0319FF282A
:1011FC00BB072608AC002C08F00028080A168A1534
:10120C00D4210A128A15710883120313BD007008C9
:10121C00BC003C08AC00AD01AE01AF012C08B2071C
:10122C002D0803110318013E03191D29B3072E08BD
:10123C0003110318013E03192429B4072F080311C5
:10124C000318013E03192B29B5073D08AC00AD016D
:10125C00AE01AF012C08B8072D0803110318013E8D
:10126C0003193929B9072E0803110318013E031974
:10127C004029BA072F0803110318013E0319472907
:10128C00BB070830AC000310B20DB30DB40DB50D97
:10129C00AC0B49292508AC002C08F00028080A16CC
:1012AC008A15D4210A128A15710883120313BD0002
:1012BC007008BC003C08AC003D08AD00AE01AF01AD
:1012CC002C08B2072D0803110318013E03196F29CE
:1012DC00B3072E0803110318013E03197629B4072E
:1012EC002F0803110318013E03197D29B5072408A3
:1012FC00AC002C08F00029080A168A15D4210A1211
:10130C008A15710883120313BD007008BC003C08D9
:10131C00AC003D08AD00AE01AF012C08B2072D08A2
:10132C0003110318013E03199C29B3072E0803115E
:10133C000318013E0319A329B4072F08031103183E
:10134C00013E0319AA29B5070830AC000310B20DF1
:10135C00B30DB40DB50DAC0BAC292408AC002C08A6
:10136C00F00028080A168A15D4210A128A15710869
:10137C0083120313BD007008BC003C08AC003D0890
:10138C00AD00AE01AF012C08B2072D0803110318F4
:10139C00013E0319D229B3072E0803110318013E8D
:1013AC000319D929B4072F0803110318013E031997
:1013BC00E029B5072508AC002C08F0002A080A160D
:1013CC008A15D4210A128A15710883120313BD00E1
:1013DC007008BC003C08AC003D08AD00AE01AF018C
:1013EC002C08B8072D0803110318013E0319FF2917
:1013FC00B9072E0803110318013E0319062ABA0770
:10140C002F0803110318013E03190D2ABB072608E8
:10141C00AC002C08F00029080A168A15D4210A12EF
:10142C008A15710883120313BD007008BC003C08B8
:10143C00AC003D08AD00AE01AF012C08B8072D087B
:10144C0003110318013E03192C2AB9072E080311A6
:10145C000318013E0319332ABA072F080311031886
:10146C00013E03193A2ABB072608AC002C08F000F1
:10147C002A080A168A15D4210A128A1571088312B1
:10148C000313BD007008BC003C08AC003D08AD0067
:10149C00AE01AF0108300310AC0DAD0DAE0DAF0DAC
:1014AC00FF3E031D512A2C08B8072D080311031801
:1014BC00013E0319622AB9072E0803110318013ED5
:1014CC000319692ABA072F0803110318013E0319DF
:1014DC00702ABB073208AC003308AD003408AE00EC
:1014EC003508AF0018300310AF0CAE0CAD0CAC0CC3
:1014FC00FF3E031D792A2C08B8072D080311031889
:10150C00013E03198A2AB9072E0803110318013E5C
:10151C000319912ABA072F0803110318013E031966
:10152C00982ABB070830AC000310B20DB30DB40DF4
:10153C00B50DAC0B9A2A37083607AC00AD01AD0DD2
:10154C002C08823EBC002D080318013EFF3EBD0056
:10155C00CC2A0130AC000310B80DB90DBA0DBB0D7F
:10156C00AC0BB12AB51FBB2ABC2ABD2A38140130DA
:10157C00AC000310B20DB30DB40DB50DAC0BBF2AFE
:10158C00FF30BC070318BD0AFF30BD07BA1FCF2AB6
:10159C00D02AAF2AB601B51FD42AD52AF12AFF309A
:1015AC003205AC00FF303305AD00FF303405AE0022
:1015BC007F303505AF002F082E042D042C040319A1
:1015CC00E82AE92AEC2AB601B60AF12A381CEF2AD5
:1015DC00F02AF12AE92A36080319F52AF62A272BCC
:1015EC000130B807003003180130B9070030031878
:1015FC000130BA07003003180130BB073B1C072B26
:10160C00082B272B3808AC003908AD003A08AE007F
:10161C003B08AF000130B0002F0DAF0CAE0CAD0C81
:10162C00AC0CB00B122B2F08BB002E08BA002D08E7
:10163C00B9002C08B8000130BC070318BD0A0030F3
:10164C00BD073D08803AFF0080307F02031D302B20
:10165C00FF303C02031C332B342B3F2B7F30831287
:10166C000313BB008030BA000030B9000030B80062
:10167C00742B831203133D08803AFF0080307F02E5
:10168C00031D4A2B01303C0203184D2B4E2B5A2BB9
:10169C00003083120313BB000030BA000030B900D5
:1016AC000030B800B101742B831203133C08AC005A
:1016BC002C08B700FF30B805FF30B9057F30BA05EC
:1016CC000030BB05371C6B2B6C2B6D2BBA173708F6
:1016DC00AC0003102C0CAD002D08BB003108AC0085
:1016EC002C08BB043B08A7003A08A6003908A50043
:1016FC003808A4000800831603138601FF30850008
:10170C008701880181131F109F101F119F118312D5
:10171C0003131F139F13831603139F139E0183122E
:10172C0003139E011F140A168A153F240A128A15E8
:10173C00831203139F111F129F121F15053083165E
:10174C000313C400C40BA82BAB2B831203131E086A
:10175C0083160313C400C501C601C7014708F30073
:10176C004608F2004508F1004408F00000300A1663
:10177C008A1589260A128A15730883160317E30043
:10178C007208E2007108E1007008E0008312031394
:10179C009F151F129F121F15053083160313C400CB
:1017AC00C40BD62BD92B831203131E0883160313D9
:1017BC00C400C501C601C7014708F3004608F20082
:1017CC004508F1004408F00000300A168A158926F5
:1017DC000A128A15730883160317E7007208E600CD
:1017EC007108E5007008E400831203139F111F16A3
:1017FC009F121F15053083160313C400C40B042C51
:10180C00072C831203131E0883160313C400C5018F
:10181C00C601C7014708F3004608F2004508F1006D
:10182C004408F00000300A168A1589260A128A1517
:10183C00730883120317AF007208AE007108AD0075
:10184C007008AC002F08F3002E08F2002D08F100F0
:10185C002C08F0004230F700FE30F6000030F500A6
:10186C000030F4000A168A15E7250A128A150318A7
:10187C00402C412C752C8312031388168815881460
:10188C000714081287140811081708108715071178
:10189C008817033083160313C6008A30C5005530F1
:1018AC00C400C40B572CC50B572CC60B572C8312DA
:1018BC00031308168714081508170814871507153D
:1018CC008817033083160313C6008A30C5005530C1
:1018DC00C400C40B6F2CC50B6F2CC60B6F2C433084
:1018EC00F3000030F2000030F1000030F000831201
:1018FC0003172F08F7002E08F6002D08F5002C080A
:10190C00F4000A168A15E7250A128A1503188F2C7B
:10191C00902CC42C83120313881688158814071472
:10192C000816871008150813081487110715881353
:10193C00033083160313C6008A30C5005530C4002B
:10194C00C40BA62CC50BA62CC60BA62C83120313FA
:10195C000816871408150817081487150715881713
:10196C00033083160313C6008A30C5005530C400FB
:10197C00C40BBE2CC50BBE2CC60BBE2C8312031382
:10198C009F151F169F121F15053083160313C400D5
:10199C00C40BCE2CD12C831203131E0883160313F5
:1019AC00C400C501C601C7014708F3004608F20090
:1019BC004508F1004408F00000300A168A15892603
:1019CC000A128A15730883160317EB007208EA00D3
:1019DC007108E9007008E800831203139F111F12AD
:1019EC009F161F15053083160313C400C40BFC2C63
:1019FC00FF2C831203131E0883160313C400C501A6
:101A0C00C601C7014708F3004608F2004508F1007B
:101A1C004408F00000300A168A1589260A128A1525
:101A2C00730883160317EF007208EE007108ED00BF
:101A3C007008EC00831203139F151F129F161F15BD
:101A4C00053083160313C400C40B2A2D2D2D8312CD
:101A5C0003131E0883160313C400C501C601C70176
:101A6C004708F3004608F2004508F1004408F0006E
:101A7C0000300A168A1589260A128A1573088312F1
:101A8C000317A7007208A6007108A5007008A4002F
:101A9C00831203139F111F169F161F1505308316F3
:101AAC000313C400C40B582D5B2D831203131E08A3
:101ABC0083160313C400C501C601C7014708F30010
:101ACC004608F2004508F1004408F00000300A1600
:101ADC008A1589260A128A15730883120317AB001C
:101AEC007208AA007108A9007008A8000A168A11C9
:101AFC0001200A128A15F401F40A01300A168A151B
:101B0C0040230A128A15A930F5008030F6000A1617
:101B1C008A156C220A128A15C83083160313A0008A
:101B2C000030A1009130C4004408A20083160317B2
:101B3C00630883160313A600831603176208831623
:101B4C000313A50083160317610883160313A4005F
:101B5C0083160317600883160313A3000A128A1155
:101B6C0080210A128A15033083160313C40044081B
:101B7C00F40001300A168A1540230A128A15C8305F
:101B8C00F5000030F6000A168A156C220A128A1526
:101B9C001A3083160313C500F730C400C40BD42DC0
:101BAC00C50BD42DD92D0A3083160313C400440859
:101BBC00F40001300A168A1540230A128A15A63041
:101BCC00F5008030F6000A168A156C220A128A1566
:101BDC00DC3083160313A0000030A1009130C40048
:101BEC004408A20083160317670883160313A60084
:101BFC0083160317660883160313A50083160317B1
:101C0C00650883160313A400831603176408831650
:101C1C000313A3000A128A1180210A128A150C30B0
:101C2C0083160313C4004408F40001300A168A1505
:101C3C0040230A128A15DC30F5000030F6000A1633
:101C4C008A156C220A128A151A3083160313C500E2
:101C5C00F730C400C40B302EC50B302E352E13308C
:101C6C0083160313C4004408F40001300A168A15C5
:101C7C0040230A128A15AC30F5008030F6000A16A3
:101C8C008A156C220A128A15903083160313A00051
:101C9C000130A1009130C4004408A2008312031744
:101CAC002F0883160313A600831203172E0883161E
:101CBC000313A500831203172D0883160313A40026
:101CCC00831203172C0883160313A3000A128A111C
:101CDC0080210A128A15153083160313C400440898
:101CEC00F40001300A168A1540230A128A15903026
:101CFC00F5000130F6000A168A156C220A128A15B4
:101D0C001A3083160313C500F730C400C40B8C2E95
:101D1C00C50B8C2E912E1C3083160313C400440863
:101D2C00F40001300A168A1540230A128A159630DF
:101D3C00F5008030F6000A168A156C220A128A15F4
:101D4C00A43083160313A0000130A1009130C4000D
:101D5C004408A200831603176B0883160313A6000E
:101D6C00831603176A0883160313A500831603173B
:101D7C00690883160313A4008316031768088316D7
:101D8C000313A3000A128A1180210A128A151F302C
:101D9C0083160313C4004408F40001300A168A1594
:101DAC0040230A128A15A430F5000130F6000A16F9
:101DBC008A156C220A128A151A3083160313C50071
:101DCC00F730C400C40BE82EC50BE82EED2EF40141
:101DDC00F40A02300A168A1540230A128A159A3020
:101DEC00F5008030F6000A168A156C220A128A1544
:101DFC00B83083160313A0000130A1009130C40049
:101E0C004408A200831603176F0883160313A60059
:101E1C00831603176E0883160313A5008316031786
:101E2C006D0883160313A400831603176C0883161E
:101E3C000313A3000A128A1180210A128A15043096
:101E4C0083160313C4004408F40002300A168A15E2
:101E5C0040230A128A15B830F5000130F6000A1634
:101E6C008A156C220A128A151A3083160313C500C0
:101E7C00F730C400C40B402FC50B402F452F0B303F
:101E8C0083160313C4004408F40002300A168A15A2
:101E9C0040230A128A159E30F5008030F6000A168F
:101EAC008A156C220A128A15CC3083160313A000F3
:101EBC000130A1009130C4004408A2008312031722
:101ECC00270883160313A60083120317260883160C
:101EDC000313A50083120317250883160313A4000C
:101EEC0083120317240883160313A3000A128A1102
:101EFC0080210A128A150E3083160313C40044087D
:101F0C00F40002300A168A1540230A128A15CC30C6
:101F1C00F5000130F6000A168A156C220A128A1591
:101F2C001A3083160313C500F730C400C40B9C2F62
:101F3C00C50B9C2FA12F153083160313C400440826
:101F4C00F40002300A168A1540230A128A15A230B0
:101F5C00F5008030F6000A168A156C220A128A15D2
:101F6C00103083160313A0000130A1009130C4007F
:101F7C004408A200831203172B0883160313A60030
:101F8C00831203172A0883160313A5008312031761
:101F9C00290883160313A400831203172808831639
:101FAC000313A3000A128A1180210A128A15183011
:101FBC0083160313C4004408F40002300A168A1571
:101FCC0040230A128A151030F5000130F6000A166B
:101FDC008A156C220A128A15823083160313C500E7
:101FEC00DD30C400C40BF82FC50BF82F9E2B0A1242
:041FFC008A1100281E
:1020020000300A128A1506200A168A1101300A12B5
:102012008A1506200A168A11080083120313D100BA
:102022006E305102031C1628172824293F30A700BE
:102032000030A6000030A5000030A4006430F60095
:102042000030F7005108C200C3014208F8004308FB
:10205200F9000A168A15AE220A168A117608831228
:102062000313C40001300310C40DFF3E031D3428C6
:102072000310440D7D3E84000A128A110D200A16B7
:102082008A11C5000A128A110D200A168A11C60089
:102092000A128A110D200A168A11C7000A128A1121
:1020A2000D200A168A11C8004808AB004708AA008A
:1020B2004608A9004508A8000A128A1520200A1617
:1020C2008A11831203132708D0002608CF0025089F
:1020D200CE002408CD000A30F6000030F700510887
:1020E200C200C3014208F2004308F3006430F0006A
:1020F2000030F1000A168A1532220A168A11710876
:10210200F9007008F8000A168A15AE220A168A111A
:10211200760883120313C40001300310C40DFF3E7E
:10212200031D8E280310440D593E84000A128A11A1
:102132000D200A168A11C5000A128A110D200A16EC
:102142008A11C6000A128A110D200A168A11C700C6
:102152000A128A110D200A168A11C8004808A7001F
:102162004708A6004608A5004508A4005008AB0091
:102172004F08AA004E08A9004D08A8000A128A15A5
:1021820020200A168A11831203132708CC0026087E
:10219200CB002508CA002408C9000A30F00000302C
:1021A200F1005108C200C3014208F2004308F300E3
:1021B2000A168A1532220A168A117008831203132C
:1021C200C40001300310C40DFF3E031DE3280310B9
:1021D200440D353E84000A128A110D200A168A1116
:1021E200C5000A128A110D200A168A11C6000A12A7
:1021F2008A110D200A168A11C7000A128A110D20AF
:102202000A168A11C8004808A7004708A60046080F
:10221200A5004508A4004C08AB004B08AA004A08D8
:10222200A9004908A8000A128A1520200A168A1154
:10223200831203132708C1002608C0002508BF0027
:102242002408BE00182A0B305102031C29292A290E
:10225200D5293F30A7000030A6000030A50000308D
:10226200A4000A30F6000030F7005108C200C30192
:102272004208F8004308F9000A168A15AE220A1627
:102282008A11760883120313C40001300310C40DAF
:10229200FF3E031D47290310440D593E84000A12D4
:1022A2008A110D200A168A11C5000A128A110D2000
:1022B2000A168A11C6000A128A110D200A168A11FC
:1022C200C7000A128A110D200A168A11C80048088E
:1022D200AB004708AA004608A9004508A8000A1250
:1022E2008A1520200A168A11831203132708D000A8
:1022F2002608CF002508CE002408CD000A30F000C1
:102302000030F1005108C200C3014208F200430844
:10231200F3000A168A1532220A168A1170088312ED
:102322000313C40001300310C40DFF3E031D9429A2
:102332000310440D353E84000A128A110D200A163C
:102342008A11C5000A128A110D200A168A11C600C6
:102352000A128A110D200A168A11C7000A128A115E
:102362000D200A168A11C8004808A7004708A600CF
:102372004608A5004508A4005008AB004F08AA0073
:102382004E08A9004D08A8000A128A1520200A1634
:102392008A11831203132708C1002608C0002508EA
:1023A200BF002408BE00182A3F30A7000030A60054
:1023B2000030A5000030A4005108C2000130031013
:1023C200C20DFF3E031DE0290310420D353E84007D
:1023D2000A128A110D200A168A11C3000A128A11E2
:1023E2000D200A168A11C4000A128A110D200A163B
:1023F2008A11C5000A128A110D200A168A11C60016
:102402004608AB004508AA004408A9004308A800F2
:102412000A128A1520200A168A118312031327082A
:10242200C1002608C0002508BF002408BE0008001D
:102432008312031355088039DA005A08E20055085E
:10244200DA005A07DB005B08E400D41F292A2A2A93
:102452002B2A6414640803192F2A302A402A640A9A
:10246200031D342A352A3D2A0030D5000030D4001D
:102472000030D3000030D200D417D501482A0030F2
:10248200D5000030D4000030D3000030D20059080B
:102492008039DA005A08E300630862060319522AF7
:1024A200532A542A62175908DA005A07DB005B08DC
:1024B200E300D81F5D2A5E2A5F2A631463080319AA
:1024C200632A642A742A630A031D682A692A712A04
:1024D2000030D9000030D8000030D7000030D600DC
:1024E200D817D9017C2A0030D9000030D80000303A
:1024F200D7000030D600640863020318812A822ABA
:10250200C62A621F852A862A8A2A8030DA005A0859
:10251200E2066408DA005A08E5006308DA005A089D
:10252200E4006508DA005A08E3005208DA005A08A3
:10253200E5005608DA005A08D2006508DA005A089F
:10254200D6005308DA005A08E5005708DA005A089C
:10255200D3006508DA005A08D7005408DA005A088E
:10256200E5005808DA005A08D4006508DA005A086B
:10257200D8005508DA005A08E5005908DA005A0866
:10258200D5006508DA005A08D900E5016308DA00C7
:10259200DB015B08DD0064085A02DC00031CDD037A
:1025A2005D08803AFF0080307F02031DDA2A1A306C
:1025B2005C02031CDD2ADE2A1B2B8312031355083F
:1025C200540453045204031DE72AE92A0130EA2A7B
:1025D2000030DA005A08E5000030D5000030D4009F
:1025E2000030D3000030D2006308DA005A08E40059
:1025F200232B651CFD2AFE2A072B6508DA0003102F
:102602005A0C0138DB005B08E500092B0310E50CCE
:10261200521C0C2B0D2B0E2BE5170130DA00550D39
:10262200D50CD40CD30CD20CDA0B102B0130DA00FF
:102632005A08E4078312031363086402031C222B63
:10264200232BFA2A621B262B272B722B6408031DCD
:102652002B2B2C2B352B0030D5000030D400003032
:10266200D3000030D200A02C5608D207570803111D
:102672000318013E03193E2BD30758080311031810
:10268200013E0319452BD407590803110318013ED3
:1026920003194C2BD507551C4F2B502B262C651C90
:1026A200532B542B5D2B6508DA0003105A0C0138AA
:1026B200DB005B08E5005F2B0310E50C521C622B6C
:1026C200632B642BE5170130DA00550DD50CD40CC1
:1026D200D30CD20CDA0B662B0130DA005A08E4076D
:1026E200262C5508803AFF005908803A7F02031DC4
:1026F200842B58085402031D842B57085302031DD0
:10270200842B560852020318872B882BE02BFF30AC
:10271200DA00FF30DB00FF30DC00FF30DD0056085E
:10272200DE005708DF005808E0005908E1005208AF
:10273200DE025308031C530F9F2BA02BDF02540809
:10274200031C540FA52BA62BE0025508031C550FA2
:10275200AB2BAC2BE1025E08DA075F0803185F0FB0
:10276200B32BB42BDB0760080318600FB92BBA2B0D
:10277200DC0761080318610ADD075D08D5005C0803
:10278200D4005B08D3005A08D2008030DA005A081D
:10279200E206E509E50A6508031DD02BD12BEE2BD5
:1027A2000130D207003003180130D307003003187C
:1027B2000130D407003003180130D507EE2B56083C
:1027C200D2025708031C570FD3025808031C580F94
:1027D200D4025908031C590FD50255085404530456
:1027E2005204031DF52BF62B222C6508031DFA2B30
:1027F200FB2B222C0030D5000030D4000030D30057
:102802000030D200A02C0130DA000310D20DD30D1B
:10281200D40DD50DDA0B062CE51F102C112C122C21
:102822005214651C152C162C192C0314E50D1B2CA7
:102832000310E50D640803191F2C202C222C0130F3
:10284200E402D41F252C262C042CE301E51F2A2C9C
:102852002B2C392C65087F390319302C312C342C60
:10286200E301E30A392C521C372C382C392C312C39
:10287200630803193D2C3E2C722C0130D207003024
:1028820003180130D307003003180130D407003099
:1028920003180130D507551C4F2C502C722C5208AE
:1028A200DA005308DB005408DC005508DD00013073
:1028B200DE005D0DDD0CDC0CDB0CDA0CDE0B5A2CC1
:1028C2005D08D5005C08D4005B08D3005A08D2002A
:1028D200640A03196D2C6E2C722C0130DA005A082E
:1028E200E407640A0319762C772C7C2C6408031DF8
:1028F2007B2C7C2C8A2C0030D5000030D400003098
:10290200D3000030D2006408031D882C892C8A2C45
:10291200E201641C8D2C8E2C902CD417942C7F30C9
:10292200DA005A08D4056408DA0003105A0CDB00F6
:102932005B08D500E21F9E2C9F2CA02CD517080007
:1029420083120313D000D01FA72CA82C552ED00918
:10295200D00A5008803A123E031CB02CB12C992D9B
:102962000A30F7000030F8005008F200F301F21BC1
:10297200F3036430F0000030F1000A168A15E623F2
:102982000A168A117108FA007008F9000A168A15E7
:1029920002250A168A11770883120313C200013036
:1029A2000310C20DFF3E031DD12C0310420D593EF0
:1029B20084000A128A110D200A168A11C3000A1213
:1029C2008A110D200A168A11C4000A128A110D20DA
:1029D2000A168A11C5000A128A110D200A168A11D6
:1029E200C6004608A7004508A6004408A5004308FB
:1029F200A4006430F7000030F8005008F900FA0132
:102A0200F91BFA030A168A1502250A168A11770893
:102A120083120313C70001300310C70DFF3E031DCD
:102A22000D2D0310470D7D3E84000A128A110D20E0
:102A32000A168A11C8000A128A110D200A168A1172
:102A4200C9000A128A110D200A168A11CA000A1236
:102A52008A110D200A168A11CB004B08AB004A08D6
:102A6200AA004908A9004808A8000A128A152020CD
:102A72000A168A11831203132708CF002608CE00F4
:102A82002508CD002408CC000A30F0000030F10007
:102A92005008F200F301F21BF3030A168A15E6232B
:102AA2000A168A11700883120313C2000130031040
:102AB200C20DFF3E031D582D0310420D353E84000A
:102AC2000A128A110D200A168A11C3000A128A11EB
:102AD2000D200A168A11C4000A128A110D200A1644
:102AE2008A11C5000A128A110D200A168A11C6001F
:102AF2004608A7004508A6004408A5004308A4000C
:102B02004F08AB004E08AA004D08A9004C08A800C7
:102B12000A128A1520200A168A1183120313270823
:102B2200C1002608C0002508BF002408BE00FF2FF0
:102B32005008803A753E031C9F2DA02D282E0A3086
:102B4200F0000030F1005008F200F301F21BF30331
:102B52000A168A15E6230A168A11700883120313CD
:102B6200C20001300310C20DFF3E031DB32D03103E
:102B7200420D353E84000A128A110D200A168A116E
:102B8200C3000A128A110D200A168A11C4000A1201
:102B92008A110D200A168A11C5000A128A110D2007
:102BA2000A168A11C6004608A7004508A60044086E
:102BB200A5004308A4000A30F7000030F8005008CE
:102BC200F900FA01F91BFA030A168A1502250A16F8
:102BD2008A11770883120313C70001300310C70D4F
:102BE200FF3E031DEF2D0310470D593E84000A12CC
:102BF2008A110D200A168A11C8000A128A110D20A4
:102C02000A168A11C9000A128A110D200A168A119F
:102C1200CA000A128A110D200A168A11CB004B082B
:102C2200AB004A08AA004908A9004808A8000A12ED
:102C32008A1520200A168A11831203132708C1005D
:102C42002608C0002508BF002408BE00FF2F500838
:102C5200C20001300310C20DFF3E031D2B2E0310D4
:102C6200420D353E84000A128A110D200A168A117D
:102C7200C3000A128A110D200A168A11C4000A1210
:102C82008A110D200A168A11C5000A128A110D2016
:102C92000A168A11C6004608C1004508C000440849
:102CA200BF004308BE00FF2F5008803A123E031CAB
:102CB2005B2E5C2E442F0A30F7000030F8005008DB
:102CC200F200F301F21BF3036430F0000030F10074
:102CD2000A168A15E6230A168A117108FA00700884
:102CE200F9000A168A1502250A168A117708831234
:102CF2000313C20001300310C20DFF3E031D7C2EE0
:102D02000310420D253E84000A128A110D200A1674
:102D12008A11C3000A128A110D200A168A11C400F0
:102D22000A128A110D200A168A11C5000A128A1186
:102D32000D200A168A11C6004608A7004508A600FB
:102D42004408A5004308A4006430F7000030F800EE
:102D52005008F900FA01F91BFA030A168A1502252E
:102D62000A168A11770883120313C7000130031071
:102D7200C70DFF3E031DB82E0310470D493E8400C8
:102D82000A128A110D200A168A11C8000A128A1123
:102D92000D200A168A11C9000A128A110D200A167C
:102DA2008A11CA000A128A110D200A168A11CB0052
:102DB2004B08AB004A08AA004908A9004808A80025
:102DC2000A128A1520200A168A1183120313270871
:102DD200CF002608CE002508CD002408CC000A30FA
:102DE200F0000030F1005008F200F301F21BF3038F
:102DF2000A168A15E6230A168A117008831203132B
:102E0200C20001300310C20DFF3E031D032F031049
:102E1200420D013E84000A128A110D200A168A11FF
:102E2200C3000A128A110D200A168A11C4000A125E
:102E32008A110D200A168A11C5000A128A110D2064
:102E42000A168A11C6004608A7004508A6004408CB
:102E5200A5004308A4004F08AB004E08AA004D0885
:102E6200A9004C08A8000A128A1520200A168A1105
:102E7200831203132708C1002608C0002508BF00DB
:102E82002408BE00FF2F5008803A753E031C4A2FCB
:102E92004B2FD32F0A30F0000030F1005008F2001F
:102EA200F301F21BF3030A168A15E6230A168A11A6
:102EB200700883120313C20001300310C20DFF3EDB
:102EC200031D5E2F0310420D013E84000A128A1177
:102ED2000D200A168A11C3000A128A110D200A1641
:102EE2008A11C4000A128A110D200A168A11C5001D
:102EF2000A128A110D200A168A11C6004608A70076
:102F02004508A6004408A5004308A4000A30F700BB
:102F12000030F8005008F900FA01F91BFA030A160A
:102F22008A1502250A168A11770883120313C7002D
:102F320001300310C70DFF3E031D9A2F0310470DEA
:102F4200253E84000A128A110D200A168A11C80031
:102F52000A128A110D200A168A11C9000A128A1150
:102F62000D200A168A11CA000A128A110D200A16A9
:102F72008A11CB004B08AB004A08AA004908A900F5
:102F82004808A8000A128A1520200A168A118312FC
:102F920003132708C1002608C0002508BF00240823
:102FA200BE00FF2F5008C20001300310C20DFF3EC9
:102FB200031DD62F0310420D013E84000A128A110E
:102FC2000D200A168A11C3000A128A110D200A1650
:102FD2008A11C4000A128A110D200A168A11C5002C
:102FE2000A128A110D200A168A11C6004608C1006B
:0E2FF2004508C0004408BF004308BE000800A8
:1032980073087204710470040319532954295629B8
:1032A8008030F3060800F100F0013A30710203188B
:1032B8005E295F29672930307102031C642965295A
:1032C8006729F001F00A700C0800F000701C6D29E5
:1032D8006E297229831203130616752983120313A4
:1032E8000612F01C782979297B2986167C298612F2
:1032F800701D7F2980298229061783290613F01D4E
:1033080086298729892986178A2986130800803003
:1033180083120313E9066D08D5006C08D4006B0806
:10332800D3006A08D2006908D9006808D80067087D
:10333800D7006608D6000A168A1119220A168A15B5
:10334800831203135508E9005408E8005308E700FE
:103358005208E6000800F401F501701CB429B529EB
:10336800BB297208F4070318F50A7308F50701303A
:103378000310F20DF30DFF3E031DBC2901300310AD
:10338800F10CF00CFF3E031DC32970087104031DE6
:10339800CE29CF29B1297508F1007408F00008007A
:1033A800F800F401F5017008F200F3017208F60064
:1033B8007308F700781CE129E229E8297608F40760
:1033C8000318F50A7708F50701300310F60DF70D15
:1033D800FF3E031DE9290310F80C7808031DF529A1
:1033E800F629DE297508F1007408F0000800F400D9
:1033F80074080F39F1007108F2007408F039F1000F
:103408007108F3008312031306157308F1000430E2
:103418000310F10CFF3E031D0C2A71080A168A15C9
:1034280069210A168A158312031386140D30F100D8
:10343800F10B1C2A83120313861072080A168A15C8
:1034480069210A168A158312031386140D30F100B8
:10345800F10B2C2A831203138610080070087104DC
:103468000319372A382A672AF501F50A462A01304E
:103478000310F00DF10DFF3E031D3C2A0130F4004E
:103488007408F507F11F492A4A2A3B2A7108730272
:10349800031D502A70087202031C532A542A5A2A00
:1034A8007008F2027108031CF303F30201300310E1
:1034B800F10CF00CFF3E031D5B2A0130F502031DE1
:1034C800662A672A4A2A7308F1007208F000080081
:1034D800FA01FB01912A7A087507F8007608F700C7
:1034E8000318F70AFA1F792AF7037708F900790809
:1034F80083120313FF00780884000A128A1103203C
:103508000A168A150A168A15FB210A168A15013029
:10351800FA070318FB0A0030FB077A087507F8005A
:103528007608F7000318F70AFA1F9B2AF7037708AB
:10353800F900790883120313FF00780884000A123F
:103548008A1103200A168A15003A031DAC2AAD2AEF
:103558006F2A0800FB01FC01760877040319B52AD5
:10356800B62AED2AFD01FD0AC42A01300310F60D22
:10357800F70DFF3E031DBA2A0130FA007A08FD074D
:10358800F71FC72AC82AB92A01300310FB0DFC0D02
:10359800FF3E031DC92A77087902031DD52A76083C
:1035A8007802031CD82AD92AE02A7608F802770874
:1035B800031CF903F9027B1401300310F70CF60C15
:1035C800FF3E031DE12A0130FD02031DEC2AED2A0E
:1035D800C82A7C08F7007B08F60008000030700550
:1035E800F80000307105F90080307205FA007F306C
:1035F8007305FB007B087A0479047804031D052B06
:10360800062B0E2B0030F3000030F2000030F100E2
:103618000030F00000307405F80000307505F9003E
:1036280080307605FA007F307705FB007B087A0446
:1036380079047804031D212B222B2A2B0030F70054
:103648000030F6000030F5000030F400770873060B
:10365800031D382B76087206031D382B7508710672
:10366800031D382B7408700603193B2B3C2B3E2B8B
:1036780003103F2B03140800F7007703031D452BA5
:10368800462B692B74087F3EF5007508FA007A0806
:10369800F50004300310F50CFF3E031D4E2B750892
:1036A800F6007608F8007A080F39F5007508F90071
:1036B80078080A128A1506200A168A1579080A1245
:1036C8008A1506200A168A15912B02307706031DE3
:1036D8006E2B6F2B912B7408BF3EF5007508FA000E
:1036E8007A08F50004300310F50CFF3E031D772B14
:1036F8007508F6007608F8007A080F39F50075089D
:10370800F90078080A128A1506200A168A15790817
:103718000A128A1506200A168A1508007308720408
:10372800710470040319992B9A2BDD2BF901F90AFE
:10373800AA2B0130F8000310F00DF10DF20DF30D76
:10374800F80B9F2B0130F8007808F907F31FAD2B11
:10375800AE2B9D2B73087702031DBC2B72087602D3
:10376800031DBC2B71087502031DBC2B7008740265
:10377800031CBF2BC02BCE2B7008F4027108031C4E
:10378800710FF5027208031C720FF6027308031C0E
:10379800730FF70201300310F30CF20CF10CF00C6C
:1037A800FF3E031DCF2B0130F902031DDC2BDD2B5F
:1037B800AE2B7708F3007608F2007508F10074085C
:1037C800F0000800F601F31FEA2BEB2BF22BF209AD
:1037D800F309F20A0319F30AF601F60AF11FF52BA9
:1037E800F62BFB2BF009F109F00A0319F10A70080E
:1037F80071040319002C012C302CF501F50A0F2C4B
:1038080001300310F00DF10DFF3E031D052C0130B2
:10381800F4007408F507F11F122C132C042C7108FE
:103828007302031D192C70087202031C1C2C1D2C1A
:10383800232C7008F2027108031CF303F302013011
:103848000310F10CF00CFF3E031D242C0130F5028F
:10385800031D2F2C302C132C76080319342C352CEF
:103868003A2CF209F309F20A0319F30A7308F10072
:103878007208F000080000300A168A1569210A1635
:103888008A151A30F500F830F400F40B492CF50BC2
:10389800492C000003300A128A1506200A168A15D8
:1038A8000730F5007D30F400F40B582CF50B582C3C
:1038B80003300A128A1506200A168A150F30F500F9
:1038C8004730F400F40B662CF50B662C6B2C033098
:1038D8000A128A1506200A168A1502300A128A1553
:1038E80006200A168A1502300A128A1506200A16B8
:1038F8008A1508300A128A1506200A168A15003019
:103908000A128A1506200A168A150C300A128A1518
:1039180006200A168A1500300A128A1506200A1689
:103928008A1506300A128A1506200A168A15080012
:103938000030FC000030FB000030FA000030F900D5
:1039480073087204710470040319AB2CAC2CF92CA5
:10395800FD01FD0ABC2C0130F8000310F00DF10D3B
:10396800F20DF30DF80BB12C0130F8007808FD07C3
:10397800F31FBF2CC02CAF2C0130F8000310F90D39
:10398800FA0DFB0DFC0DF80BC22C73087702031D12
:10399800D72C72087602031DD72C71087502031DF7
:1039A800D72C70087402031CDA2CDB2CEA2C700864
:1039B800F4027108031C710FF5027208031C720FE0
:1039C800F6027308031C730FF70279140130031011
:1039D800F30CF20CF10CF00CFF3E031DEB2C013044
:1039E800FD02031DF82CF92CC02C7C08F3007B0881
:1039F800F2007A08F1007908F00008008312031336
:103A0800A101F81F082D092D102DF709F809F70A4B
:103A18000319F80AA101A10AFA1F132D142D1D2D4F
:103A2800F909FA09F90A0319FA0A0130FB007B08B7
:103A3800A106A201A301770878040319242D252DD6
:103A48005C2DA001A00A332D01300310F70DF80DED
:103A5800FF3E031D292D0130FB007B08A007F81F3E
:103A6800362D372D282D01300310A20DA30DFF3E52
:103A7800031D382D78087A02031D442D7708790232
:103A8800031C472D482D4F2D7708F9027808031C91
:103A9800FA03FA02221401300310F80CF70CFF3E67
:103AA800031D502D0130A002031D5B2D5C2D372D09
:103AB80021080319602D612D662DA209A309A20A08
:103AC8000319A30A2308F8002208F70008000310C6
:103AD80083120313530D540DD5005508DB005B0802
:103AE800031D772D782D812D0030D4000030D300B0
:103AF8000030D2000030D100E62D5108D500520820
:103B0800D6005308D7005408D8001F300310D80C2B
:103B1800D70CD60CD50CFF3E031D8A2D5508D900AD
:103B28005908DA00D317FF30D105FF30D205FF302E
:103B3800D3050030D4059630DB02DB1FA42DA52D5C
:103B4800BF2D5B08803A973E0318AB2DAC2DAD2DE9
:103B5800782D01300310D40CD30CD20CD10CFF3EBD
:103B6800031DAE2D0130D5005508DB07031DBD2D03
:103B7800BE2DAD2DD62D20305B02031CC42DC52DC6
:103B8800D12D782D0130D5000310D10DD20DD30DD4
:103B9800D40DD50BC82D0130DB025B08031DD52DD4
:103BA800D62DC62D5A080319DA2DDB2DE62DD1099D
:103BB800D209D309D409D10A0319D20A0319D30A9D
:103BC8000319D40A080000307005F80000307105A8
:103BD800F90080307205FA007F307305FB007B081E
:103BE8007A0479047804031DFA2DFB2D032E003086
:103BF800F3000030F2000030F1000030F000003037
:103C08007405F80000307505F90080307605FA0073
:103C18007F307705FB007B087A0479047804031D5C
:103C2800162E172E1F2E0030F7000030F600003039
:103C3800F5000030F400F31F222E232E472E00300B
:103C4800F8000030F9000030FA008030FB007008FE
:103C5800F8027108031C710F322E332EF902720814
:103C6800031C720F382E392EFA027308031C730FC7
:103C78003E2E3F2EFB027B08F3007A08F2007908FB
:103C8800F1007808F000F71F4A2E4B2E6F2E0030F7
:103C9800F8000030F9000030FA008030FB007408AA
:103CA800F8027508031C750F5A2E5B2EF902760868
:103CB800031C760F602E612EFA027708031C770F1B
:103CC800662E672EFB027B08F7007A08F600790853
:103CD800F5007808F4008030F3068030F70677089E
:103CE8007302031D812E76087202031D812E75084A
:103CF8007102031D812E740870020318842E852E0C
:103D0800872E0310882E03140800F800780803197A
:103D18008E2E8F2EA32EF31F922E932EA32E700974
:103D2800FA007109FB007209FC007309FD00FA0A28
:103D38000319FB0A0319FC0A0319FD0AAB2E7308C1
:103D4800FD007208FC007108FB007008FA00730897
:103D5800720471047004031DB22EB32EBC2E003001
:103D6800F3000030F2000030F1000030F000422F84
:103D78009630F4007408F900CE2E0130F40074086F
:103D8800F90701300310FD0CFC0CFB0CFA0CFF3E8C
:103D9800031DC62EFE307D05031DD32ED42EC12E45
:103DA800F02E0130F4007408F9070130FA070030EA
:103DB80003180130FB07003003180130FC070030FE
:103DC80003180130FD0701300310FD0CFC0CFB0C3F
:103DD800FA0CFF3E031DE82EFF307D05031DF52E6E
:103DE800F62ED52E022F0130F9020130F40003100F
:103DF800FA0DFB0DFC0DFD0DF40BFB2EFC1B052F26
:103E0800062F0C2F0230790203180B2F0C2FF72ED8
:103E180079180F2F102F182FFF30FA05FF30FB05E8
:103E28007F30FC05FF30FD050310F90C7908F4001C
:103E3800F501F601F70118300310F40DF50DF60D34
:103E4800F70DFF3E031D202F7408FA047508FB04C4
:103E58007608FC047708FD0478080319342F352FF9
:103E68003A2FF31F382F392F3A2FFD177D08F3000B
:103E78007C08F2007B08F1007A08F000080070085E
:103E8800F8007108F9007208FA000310790D7A0D2C
:103E9800FB007B0883120313A5002508031D552F7B
:103EA800562F5F2F0030F3000030F2000030F10091
:103EB8000030F000FF2F7408F8007508F900760844
:103EC800FA000310790D7A0DFB007B08A400240882
:103ED800031D6F2F702F712F562FF117FF30F0052C
:103EE800FF30F1050030F205F517FF30F405FF301B
:103EF800F5050030F6050030A3000030A2000030C0
:103F0800A1000030A0007F30A50298302407F800F7
:103F18007808A5021830F8007808A4000130F800E5
:103F28000310A00DA10DA20DA30DF80B942F760878
:103F38007202031DA52F75087102031DA52F7408B1
:103F48007002031CA82FA92FB42F7408F00275085B
:103F5800031C750FF1027608031C760AF20220147E
:103F680001300310F00DF10DF20DFF3E031DB52FCA
:103F78000130A402031DC12FC22F922FA51FC52FE8
:103F8800C62FE02F2508803A973E0318CC2FCD2F57
:103F9800CE2F562F01300310A30CA20CA10CA00C9D
:103FA800FF3E031DCF2F0130F8007808A507031D39
:103FB800DE2FDF2FCE2FF72F18302502031CE52F19
:103FC800E62FF22F562F0130F8000310A00DA10D97
:103FD800A20DA30DF80BE92F0130A5022508031D3A
:103FE800F62FF72FE72F2308F3002208F200210805
:083FF800F1002008F0000800B0
:02400E00F23F7F
:00000001FF
