:020000040000FA
:060000000A128A110C280F
:10000800FE00030EF2000A08F3000A128A15312FC7
:100018000A128A110F288313C830FD000D30FE0024
:10002800C630FF00C03084000A128A15F2250A1271
:100038008A115430FD000D30FE00CE30FF004C30E8
:1000480084000A128A15F2250A128A1183160313EC
:10005800C801C90183120313C401C501C601C70140
:10006800C801C901CA01CB01F601F701F801F9017C
:1000780083010A128A11AA2D831203139F111F12DA
:100088009F121F150F3083120313AE00AE0B4A28C0
:100098004D28831203131E08AE00AF01B001B10151
:1000A8003108A3003008A2002F08A1002E08A000E4
:1000B80000300A128A114A240A128A118312031381
:1000C8002308F9002208F8002108F7002008F600A4
:1000D8009F151F129F121F150F3083120313AE00B6
:1000E800AE0B74287728831203131E08AE00AF01E5
:1000F800B001B1013108A3003008A2002F08A10007
:100108002E08A00000300A128A114A240A128A1105
:10011800831203132308CB002208CA002108C90050
:100128002008C8009F111F169F121F150F30831239
:100138000313AE00AE0B9E28A128831203131E08DA
:10014800AE00AF01B001B1013108A3003008A20030
:100158002F08A1002E08A00000300A128A114A2494
:100168000A128A11831203132308C7002208C60043
:100178002108C5002008C4009F151F169F121F15CF
:100188000F3083120313AE00AE0BC828CB2883129E
:1001980003131E08AE00AF01B001B1013108A3007E
:1001A8003008A2002F08A1002E08A00000300A1273
:1001B8008A114A240A128A11831203132308D300CE
:1001C8002208D2002108D1002008D0009F111F1258
:1001D8009F161F150F3083120313AE00AE0BF228C3
:1001E800F528831203131E08AE00AF01B001B10158
:1001F8003108A3003008A2002F08A1002E08A00093
:1002080000300A128A114A240A128A11831203132F
:100218002308CF002208CE002108CD002008CC00FA
:100228009F151F129F161F150F3083120313AE0060
:10023800AE0B1C291F29831203131E08AE00AF0141
:10024800B001B1013108A3003008A2002F08A100B5
:100258002E08A00000300A128A114A240A128A11B4
:1002680083120313230883160313C700831203138F
:10027800220883160313C60083120313210883166A
:100288000313C50083120313200883160313C40045
:10029800831203139F111F169F161F150230831216
:1002A8000313AE00AE0B56290000831203131E0879
:1002B800AE00AF01B001B1013108A3003008A200BF
:1002C8002F08A1002E08A00000300A128A114A2423
:1002D8000A128A1183120313230883160313C30017
:1002E80083120313220883160313C2008312031315
:1002F800210883160313C1008312031320088316F1
:100308000313C00008000A128A15E1250A128A118F
:1003180083120313A201A20A01300A128A110A27C2
:100328000A128A110B3083120313BF003F08AC0076
:100338004B08A3004A08A2004908A1004808A000E9
:100348000A128A112B260A128A1183120313210812
:10035800AE002008AD007908A3007808A20077084D
:10036800A1007608A0000A128A112B260A128A1107
:10037800831203132108B0002008AF004708A30028
:100388004608A2004508A1004408A0000A128A11E4
:100398002B260A128A11831203132108B20020089F
:1003A800B1005308A3005208A2005108A100500848
:1003B800A0000A128A112B260A128A11831203132B
:1003C8002108B4002008B300A0300A128A117E2246
:1003D8000A128A11A0300A128A15C0260A128A1136
:1003E8000D3083120313C000FB30BF00BF0BFA2986
:1003F800C00BFA2983120313A201A20A02300A12BF
:100408008A110A270A128A11203083120313BF00A7
:100418003F08AC004F08A3004E08A2004D08A100F9
:100428004C08A0000A128A112B260A128A1183127C
:1004380003132108AE002008AD00831603134708F4
:1004480083120313A30083160313460883120313AE
:10045800A20083160313450883120313A100831611
:100468000313440883120313A0000A128A112B26CF
:100478000A128A11831203132108B0002008AF0062
:1004880083160313430883120313A300831603136D
:10049800420883120313A200831603134108831230
:1004A8000313A10083160313400883120313A0004B
:1004B8000A128A112B260A128A11831203132108A1
:1004C800B2002008B100B0300A128A117E220A1246
:1004D8008A11B0300A128A15C0260A128A110D3004
:1004E80083120313C000FB30BF00BF0B792AC00B77
:1004F800792A080083120313BD002D30B500350892
:10050800B800512B25303E0603198B2A8C2A982ACD
:100518003E08B5003D08840035088313800001308B
:10052800B5003508BD07512BB9010130AC07FF30C4
:100538002C0784000A128A1500200A128A11BE00AC
:10054800B500B6013608003A0319AB2A512B350815
:10055800003A0319632B643A0319B62A0D3A0319B2
:10056800B62A512B3808840083130008BB00840A7C
:100578000008BC000230B5003508B807BC1FC52A02
:10058800C62ACF2A0330B5003508B904BB09BC090F
:10059800BB0A0319BC0ABE01BE0A3E08B5003507EE
:1005A800013E84000A128A1500200A128A11B60038
:1005B8000A128A1500200A128A11B70037083C026D
:1005C800031DE82A36083B020318EB2AEC2AED2A19
:1005D800F72A0130B5003508BE0705303E06031D71
:1005E800F62AF72AD12A390803390319FC2AFD2AE1
:1005F800082B2D30B5003D08840035088313800092
:100608000130B5003508BD073E08B5003508BA0009
:10061800482B0A30A7000030A8003A08B500350773
:10062800013E84000A128A1500200A128A11A000CD
:100638000A128A1500200A128A11A1003C08A30098
:100648003B08A2000A128A11B4270A128A118312DF
:1006580003132108AA002008A9000A128A15C42732
:100668000A128A11831203132708303EB60036088F
:10067800BE003E08B5003D0884003508831380009D
:100688000130B5003508BD07FF30B5003508BA0799
:100698003A0A031D502B512B0D2B0130AC07FF30AC
:1006A8002C0784000A128A1500200A128A11B50044
:1006B8003508BE003E08031D622B632B862A3D08C1
:1006C8008400831380010800423083120313A300BF
:1006D8008030A2000030A1000030A0004B08A70025
:1006E8004A08A6004908A5004808A4000A128A1169
:1006F80006250A128A11031C822B832B922B0A12BD
:100708008A150B270A128A118312031307138312FF
:1007180003138712831203130712492C43308312E1
:100728000313A3000030A2000030A1000030A00095
:100738004B08A7004A08A6004908A5004808A400D5
:100748000A128A1106250A128A11031CAC2BAD2B3A
:10075800B82B0A128A150B270A128A110A128A154F
:10076800E5260A128A118B2B423083120313A30049
:100778008030A2000030A1000030A0004B08A70084
:100788004A08A6004908A5004808A4000A128A11C8
:1007980006250A128A110318D22BD32BFE2B4330BD
:1007A80083120313A3004030A2000030A1000030E0
:1007B800A0004B08A7004A08A6004908A500480859
:1007C800A4000A128A1106250A128A11031CED2BAD
:1007D800EE2BFE2B0A128A150B270A128A110A120F
:1007E8008A15E5260A128A110A128A1559270A1249
:1007F8008A118E2B423083120313A3008030A2008B
:100808000030A1000030A0004B08A7004A08A6004D
:100818004908A5004808A4000A128A1106250A12E8
:100828008A110318182C192C492C433083120313EE
:10083800A3008C30A2000030A1000030A0004B08BB
:10084800A7004A08A6004908A5004808A4000A12FB
:100858008A1106250A128A11031C332C342C492CC0
:100868000A128A151D260A128A110A128A150B27DE
:100878000A128A110A128A15E5260A128A110A1220
:100888008A1559270A128A11492C08008312031362
:10089800A80028080319512C522C662CA31F552C8C
:1008A800562C662C2009AA002109AB002209AC00AD
:1008B8002309AD00AA0A0319AB0A0319AC0A0319E4
:1008C800AD0A6E2C2308AD002208AC002108AB004D
:1008D8002008AA002308220421042004031D752CE3
:1008E800762C7F2C0030A3000030A2000030A1003D
:1008F8000030A000052D9630A4002408A900912CF2
:100908000130A4002408A90701300310AD0CAC0C79
:10091800AB0CAA0CFF3E031D892CFE302D05031DD0
:10092800962C972C842CB32C0130A4002408A907FA
:100938000130AA07003003180130AB070030031854
:100948000130AC07003003180130AD070130031047
:10095800AD0CAC0CAB0CAA0CFF3E031DAB2CFF304E
:100968002D05031DB82CB92C982CC52C0130A902D3
:100978000130A4000310AA0DAB0DAC0DAD0DA40BF6
:10098800BE2CAC1BC82CC92CCF2C02302902031852
:10099800CE2CCF2CBA2C2918D22CD32CDB2CFF3000
:1009A800AA05FF30AB057F30AC05FF30AD0503105D
:1009B800A90C2908A400A501A601A7011830031055
:1009C800A40DA50DA60DA70DFF3E031DE32C2408BD
:1009D800AA042508AB042608AC042708AD04280897
:1009E8000319F72CF82CFD2CA31FFB2CFC2CFD2C39
:1009F800AD172D08A3002C08A2002B08A1002A0877
:100A0800A00008000030831203132005A80000305E
:100A18002105A90080302205AA007F302305AB00FC
:100A28002B082A0429042804031D1B2D1C2D242D02
:100A38000030A3000030A2000030A1000030A00068
:100A480000302405A80000302505A90080302605BF
:100A5800AA007F302705AB002B082A0429042804A4
:100A6800031D372D382D402D0030A7000030A6007B
:100A78000030A5000030A400A31F432D442D682D8D
:100A88000030A8000030A9000030AA008030AB0078
:100A98002008A8022108031C210F532D542DA90258
:100AA8002208031C220F592D5A2DAA022308031CC1
:100AB800230F5F2D602DAB022B08A3002A08A2008C
:100AC8002908A1002808A000A71F6B2D6C2D902DC8
:100AD8000030A8000030A9000030AA008030AB0028
:100AE8002408A8022508031C250F7B2D7C2DA902AC
:100AF8002608031C260F812D822DAA022708031C15
:100B0800270F872D882DAB022B08A7002A08A600DF
:100B18002908A5002808A4008030A3068030A7066D
:100B280027082302031DA22D26082202031DA22D39
:100B380025082102031DA22D240820020318A52D33
:100B4800A62DA82D0310A92D031408000A128A1136
:100B580062270A128A110A128A11A7260A128A1112
:100B68000A128A1140200A128A110A128A11872150
:100B78000A128A11790883120313A3007808A200C5
:100B88007708A1007608A0000A128A112B260A12FB
:100B98008A11831203132108803AFF0080307F02F4
:100BA800031DD82DC0302002031CDB2DDC2DE22DC7
:100BB8000A128A157D260A128A11052E831203133A
:100BC8004708A3004608A2004508A1004408A00061
:100BD8000A128A112B260A128A118312031321087A
:100BE800803AFF0080307F02031DFC2DC0302002B8
:100BF800031CFF2D002E052E0A128A155C260A12E8
:100C08008A118312031386190A2E0B2E0F2E051E26
:100C18000E2E0F2E142E0A128A15D6250A128A11A4
:100C28000A128A1168230A128A11063083120313E2
:100C3800C3001330C200AD30C100C10B212EC20B5E
:100C4800212EC30B212EB42D0A128A110C28031051
:100C580083120313220D230DA4002408F500750840
:100C6800031D372E382E412E0030A3000030A2007D
:100C78000030A1000030A000A62E2008A400210802
:100C8800A5002208A6002308A7001F300310A70C00
:100C9800A60CA50CA40CFF3E031D4A2E2408A80090
:100CA8002808F400A217FF30A005FF30A105FF3087
:100CB800A2050030A3059630F502F51F642E652EB7
:100CC8007F2E7508803A973E03186B2E6C2E6D2E7A
:100CD800382E01300310A30CA20CA10CA00CFF3E6F
:100CE800031D6E2E0130A4002408F507031D7D2E78
:100CF8007E2E6D2E962E20307502031C842E852E96
:100D0800912E382E0130A4000310A00DA10DA20DC4
:100D1800A30DA40B882E0130F5027508031D952E2E
:100D2800962E862E740803199A2E9B2EA62EA0099D
:100D3800A109A209A309A00A0319A10A0319A20A71
:100D48000319A30A080000300A128A159E260A12FF
:100D58008A111A3083120313A300F730A200A20BE2
:100D6800B32EA30BB32EB82E03300A128A15012610
:100D78000A128A11073083120313A3007C30A200E1
:100D8800A20BC42EA30BC42E000003300A128A152E
:100D980001260A128A110F3083120313A300473069
:100DA800A200A20BD52EA30BD52E03300A128A154A
:100DB80001260A128A1102300A128A1501260A121D
:100DC8008A1102300A128A1501260A128A1108307D
:100DD8000A128A1501260A128A1100300A128A1587
:100DE80001260A128A110C300A128A1501260A12E3
:100DF8008A1100300A128A1501260A128A11063051
:100E08000A128A1501260A128A110800831203138E
:100E1800A5002503031D112F122F372F22087F3E0F
:100E2800A3002308A8002808A30004300310A30C7B
:100E3800FF3E031D1A2F2308A4002408A600280833
:100E48000F39A3002308A70026080A128A150126CD
:100E58000A128A118312031327080A128A15012617
:100E68000A128A11612F02302506031D3C2F3D2FDF
:100E7800612F2208BF3EA3002308A8002808A3006A
:100E880004300310A30CFF3E031D452F2308A400C4
:100E98002408A60028080F39A3002308A70026085D
:100EA8000A128A1501260A128A11831203132708C7
:100EB8000A128A1501260A128A11080083160313DA
:100EC8008117061486100611861506128612061357
:100ED800861301178B170B168B100B17011481142F
:100EE8000115811583120313901010169012DC302F
:100EF8008E000B308F00831603130C148312031318
:100F08001014FF30831603138500870188011F1012
:100F18009F101F119F11831203131F139F13831612
:100F280003139F139E01831203139E011F140610BF
:100F380086100611861106128612061386130714E8
:100F480087100711871107128712071387130810D4
:100F580088140811881508128816081388130800C1
:100F680083120313A501A601200821040319BD2F2C
:100F7800BE2FF52FA401A40ACC2F01300310A00D19
:100F8800A10DFF3E031DC22F0130F4007408A40711
:100F9800A11FCF2FD02FC12F01300310A50DA60DF3
:100FA800FF3E031DD12F21082302031DDD2F20083A
:100FB8002202031CE02FE12FE82F2008A2022108BB
:100FC800031CA303A302251401300310A10CA00CD9
:100FD800FF3E031DE92F0130A402031DF42FF52F56
:0C0FE800D02F2608A1002508A00008005A
:1010000008308A000408840A82070034013400345E
:101010000A34003464340034E834033410342734A0
:1010200051343A3425346934203443343A34253445
:10103000693420344C343A34253469342034533400
:1010400031343A34253469340034533432343A3448
:10105000253469342034533433343A3425346934F4
:101060002034533434343A34253469342034003451
:101B8C000034803480344334003480348034433423
:101B9C000034803480344334003480348034433413
:101BAC0083120313081687140815081708148715D1
:101BBC0007158817080000300A128A1501260A1228
:101BCC008A1501300A128A1501260A128A15080094
:101BDC007E088A007F0882000A128A15EE250A12F6
:101BEC008A158000840A04087D0603190034FF0A54
:101BFC000319FE0AF22DF500831203130611750862
:101C0C000A128A159E260A128A1583120313861449
:101C1C00063083120313A1002F30A000A00B142E4A
:101C2C00A10B142E192E8312031386100800831691
:101C3C000313430883120313A300831603134208F0
:101C4C0083120313A2008316031341088312031398
:101C5C00A10083160313400883120313A0000A1279
:101C6C008A112B260A128A15080083120313051AEF
:101C7C00402E412E532E08128714081108170810F5
:101C8C008715071188171430F1007930F000F00B2C
:101C9C004D2EF10B4D2E522E5B2E08168714081567
:101CAC0008170814871507158817080083120313E3
:101CBC008619612E622E742E0816871008150813CB
:101CCC0008148711071588131430F5007930F400C7
:101CDC00F40B6E2EF50B6E2E732E7C2E08168714BD
:101CEC00081508170814871507158817080083129C
:101CFC000313051A822E832E952E081287140811B1
:101D0C00081708108715071188171430F50079305B
:101D1C00F400F40B8F2EF50B8F2E942E9D2E08169F
:101D2C008714081508170814871507158817080055
:101D3C00F400741CA22EA32EA72E831203130616D6
:101D4C00AA2E831203130612F41CAD2EAE2EB02E47
:101D5C008616B12E8612741DB42EB52EB72E06170C
:101D6C00B82E0613F41DBB2EBC2EBE2E8617BF2E0E
:101D7C008613080083120313A600A401A501D92E13
:101D8C0024082607A3002308840000080A128A15D9
:101D9C008D270A128A15013083120313A407031826
:101DAC00A50A0030A50724082607A30023088400F1
:101DBC0083130008031DE32EE42EC62E08008312A5
:101DCC0003134F08A3004E08A2004D08A1004C08B5
:101DDC00A0000A128A112B260A128A1583120313E9
:101DEC002108803AFF0080307F02031DFF2E8130D6
:101DFC0020020318022F032F072F83120313071738
:101E0C000A2F8312031307130800831203135308BA
:101E1C00A3005208A2005108A1005008A0000A1209
:101E2C008A112B260A128A15831203132108803A71
:101E3C00FF0080307F02031D252F81302002031804
:101E4C00282F292F2D2F831203138717302F83123E
:101E5C000313871308008B1C342F352F442F3C2F72
:101E6C0064000A128A153B260A128A158312031380
:101E7C000618412F422F362F8B10522F831203132B
:101E8C000C1C492F4A2F522F6400831203130C1081
:101E9C00DC308E000B308F0073088A00720E8300CA
:101EAC00FE0E7E0E090083160313470883120313DC
:101EBC00A30083160313460883120313A200831690
:101ECC000313450883120313A1008316031344085C
:101EDC0083120313A0000A128A112B260A128A15E8
:101EEC00831203132108803AFF0080307F02031D08
:101EFC00812F803020020318842F852F892F831285
:101F0C00031387168C2F8312031387120800831276
:101F1C000313A20022080F39F5007508A00022084F
:101F2C00F039F5007508A10006152108F5000430FC
:101F3C000310F50CFF3E031D9E2F75080A128A151F
:101F4C009E260A128A158312031386140D30F5008F
:101F5C00F50BAE2F83120313861020080A128A1574
:101F6C009E260A128A158312031386140D30F5006F
:101F7C00F50BBE2F83120313861008008312031374
:101F8C00270828040319CB2FCC2FFB2FAB01AB0A4E
:101F9C00DA2F01300310A70DA80DFF3E031DD02F23
:101FAC000130F5007508AB07A81FDD2FDE2FCF2FF2
:101FBC0028082A02031DE42F27082902031CE72FF7
:101FCC00E82FEE2F2708A9022808031CAA03AA024F
:101FDC0001300310A80CA70CFF3E031DEF2F01309E
:101FEC00AB02031DFA2FFB2FDE2F2A08A8002908AD
:041FFC00A700080032
:02400E00F63F7B
:00000001FF
